S011000052544F532064656D6F2E7372656306
S1130000A00F0120E1020000DD020000DD0200007B
S1130010DD020000DD020000DD020000000000003F
S1130020000000000000000000000000B10E00000D
S1130030DD02000000000000010F000015100000A8
S1130040DD020000DD020000DD020000DD02000030
S1130050DD020000DD020000DD020000DD02000020
S1130060DD020000DD020000DD020000DD02000010
S1130070DD020000DD020000DD020000DD02000000
S1130080DD020000DD020000DD020000DD020000F0
S1130090DD020000DD020000DD020000DD020000E0
S11300A0DD020000DD020000DD020000DD020000D0
S11300B0DD020000DD020000DD020000DD020000C0
S11300C0DD020000DD020000DD020000DD020000B0
S11300D0DD020000DD020000DD020000DD020000A0
S11300E0DD020000DD02000000000000000000004E
S11300F000000000E1080000DD020000DD02000055
S1130100DD020000DD020000DD020000DD0200006F
S1130110DD020000DD020000690C00007D0C00001F
S1130120910C0000A50C0000DD020000DD020000BF
S1130130DD020000DD020000DD020000DD0200003F
S1130140DD020000DD020000DD020000DD0200002F
S1130150DD020000DD020000DD020000DD0200001F
S1130160DD020000DD020000DD020000DD0200000F
S1130170DD020000DD020000DD020000DD020000FF
S1130180DD020000DD020000DD020000DD020000EF
S1130190DD020000DD020000DD020000DD020000DF
S11301A0DD020000DD020000DD020000DD020000CF
S11301B0DD020000DD020000DD020000DD020000BF
S11301C0DD020000DD020000DD020000DD020000AF
S11301D0DD020000DD020000DD020000DD0200009F
S11301E0DD020000DD020000DD020000DD0200008F
S11301F0DD020000DD020000DD020000DD0200007F
S1130200DD020000DD020000DD020000DD0200006E
S1130210DD020000DD020000DD020000DD0200005E
S1130220DD020000DD020000DD020000DD0200004E
S1130230DD020000DD020000DD020000DD0200003E
S1130240DD020000DD020000DD020000DD0200002E
S1130250DD020000DD020000DD020000DD0200001E
S1130260DD02000010B5054C237833B9044B13B1FB
S11302700448AFF300800123237010BD0C0000205C
S113028000000000803200000C4B43B10C480D49C3
S113029010B5AFF300800C48036823B910BD0A48B9
S11302A0036833B97047094B002BF7D0BDE8104001
S11302B01847064B002BF5D0184700BF000000007C
S11302C08032000010000020803200000000000096
S11302D008B5014B984708BD41040000FEE7000043
S11302E008B5154B154A9A4209D0134B134A03E03B
S11302F0116819600433043211498B42F8D3114B4D
S113030002E000221A6004330F4A9342F9D30F4BE0
S11303100F4A22F07F029A60D3F8882042F47002D8
S1130320C3F88820BFF34F8FBFF36F8F094B9847F3
S1130330094B9847FEE700BF000000208032000010
S11303400C0000200C000020A00F002000ED00E0B5
S1130350000000006D300000F50C0000104B93F815
S1130360D92002F0FE0242F0010283F8D92093F86A
S1130370BC2002F00F0242F0300283F8BC2093F854
S1130380D82002F0FE0242F0010283F8D82093F84C
S1130390BC2002F0F00242F0030283F8BC20704754
S11303A000800041064B4022C3F8DC204322C3F8FE
S11303B08C20044A936943F400739361704700BF2F
S11303C0001C00400008004030B583B0144B98472F
S11303D0002036230AE01AB2002A19DA03F00F01CA
S11303E0104A0A44C0211176013301300328F2D99E
S11303F00D4C0023009310230C4A0D4920460D4D4B
S1130400A84720460C4B98470C4B984703B030BD87
S113041002F1604202F56142C02182F80013E3E771
S1130420A5030000FCEC00E0440F0020340F002082
S113043000200141210600001D0700005D030000AB
S113044008B50C4B98470C4B4FF48022C3F8142189
S1130450C3F808214FF08042C3F82821074AC3F8A3
S1130460282193F8522102F0FE0283F85221044B12
S1130470984708BD4108000000800041040000C006
S1130480C9030000EFF31083036072B6BFF35F8FFC
S11304907047BFF35F8F036883F3108870470000D1
S11304A070B50D461646044668B151B10120342298
S11304B00649074B98472368324629462046984701
S11304C070BD0020F3E70020F1E700BFEC3000002E
S11304D04907000008B53C30014B984708BD00BFF0
S11304E0790D000008B54030014B984708BD00BFA6
S11304F0790D000010B5C36A43B1028E541C048602
S11305009954028E438E9A4204D210BD1C30044B7F
S1130510984710BD0023C3623C30024B9847F4E770
S1130520DD070000790D000010B51446C163A0F882
S113053042200023A0F840300830024B9847204660
S113054010BD00BFE70B000010B50446038F428FB7
S1130550934209D0426B591C0187D15C044B9847E4
S11305602046044B984710BD034B984710BD00BF6D
S1130570E10B0000E70B0000EF0B0000F0B583B0C7
S1130580044616460F46081C18BF012040F22512E7
S11305901C491D4B984704F1240528461B4B9847DA
S11305A0B04201D3002128E001A8194B9847002349
S11305B023876687676307E0616B238F5A1C228752
S11305C019442846134B98472846104B984700284F
S11305D0F2D101A8104B98474FF0FF3104F14400C9
S11305E00E4B984758B16FF0070009E04C1CA4B2B9
S11305F039442846074B98472146B142F6D3304642
S113060003B0F0BD00310000490700001D080000E0
S1130610850400009507000093040000BD0D000050
S11306202DE9F8430F4615461E460446002846D0D9
S1130630002946D0002A46D0002B46D10020402273
S113064029492A4B98473246294604F12400284B6D
S11306509847002845D104F1440600213046254B33
S11306609847051E28DB04F1480900214846214B20
S11306709847051E2BDB04F10808394640461E4BFB
S11306809847054638BB00236363238763871B4B66
S113069063601B4B23601B4BA3601B4BE3601B4B32
S11306A023611B4B6361012211464046194CA0474C
S11306B0012203214046A0472846BDE8F8830020D4
S11306C0BDE70020BBE70020B9E70120B7E74846B3
S11306D0114B9847F0E748460F4CA0473046A047D7
S11306E0EAE76FF00C05E7E7003100004907000076
S11306F051070000410D0000490B00007D0500007A
S11307002905000049050000F5040000E504000087
S1130710D5040000F90B0000D50D000010B5044607
S11307207B220649003018BF0120054B984704F18D
S11307300800044B9847002010BD00BF00310000A2
S113074049070000CD0B000000B900BE704700004F
S113075070B50E461546044678B181B18AB90020B9
S113076028220A490A4B98476B1E1D420BD163602D
S11307700020A060E060266070BD0020F0E700204B
S1130780EEE70120ECE76FF00C0070BD1C310000B7
S11307904907000038B50D460446A8B191B10120BF
S11307A040220C490C4B9847E268A3689A420DD04A
S11307B0226861680B40D35C2B70A3680133A3608B
S11307C0002038BD0020EBE70020E9E76FF00900C6
S11307D038BD00BF1C3100004907000038B50D4684
S11307E0044651220B49003018BF01200A4B984798
S11307F02268E36861680B40D554E368A2689A1ADA
S113080061688A4201D9591AA1600133E36000206A
S113081038BD00BF1C3100004907000010B5044674
S113082067220549003018BF0120044B9847E0684F
S1130830A368C01A10BD00BF1C31000049070000A6
S113084008B5084A13889BB21380074B9847074B97
S11308509847074B9847074B984740F6FF70064B5D
S1130860984708BD00400041AD080000C1080000E1
S1130870A1080000DD0800007D08000010F0010F51
S113088008D0054A054B1A62044B5A6843F6FD73B7
S11308901A42F9D1704700BF01010100001C004059
S11308A00122014B5A71704700080040034BDA697A
S11308B002F47C52DA6100221A747047001400407A
S11308C0044A054B9A61044B1B6913F0020FFAD0DA
S11308D0704700BF06260003001000407047000068
S11308E000B583B00D4B9B78DBB20193019B13F0F1
S11308F0020F06D00A4B1B681BB1084A5068984780
S113090009E0019B13F0010F05D0054B5B6813B19F
S1130910024A5068984703B05DF804FB00000241A6
S1130920900F002070B489B006466C460C4D0FCD74
S11309300FC495E80F0084E80F00002007280AD8A8
S113094008AB03EB800353F8203CB34201D00130E1
S1130950F4E7C0B200E0002009B070BC704700BFEB
S11309604031000010B58469237E13F0010F03D0D9
S1130970A37D13F0010F12D1237E13F0020F03D0D5
S1130980A37D13F0020F0FD1237E13F0040F15D0B3
S1130990638B03F0370363B1FF23638310BD01232B
S11309A023750368984710BD02232375836898470D
S11309B010BD4368A16AC9B2984710BD237EDB0904
S11309C000D110BD80232376C3689847638B9BB204
S11309D06383F6E7034B984200D07047024B1960DB
S11309E0FBE700BF002001412800002008B5044BAC
S11309F098478000C0B22E3000F0FE0008BD00BF52
S1130A002509000008B50C4B9847002343B140F278
S1130A106B220A4900200A4B98470023184608BD58
S1130A2003EB4302D100074A0A4492F82020904283
S1130A30F4D00133DBB2E9E725090000B43100004A
S1130A40490700004031000038B504463C4B984744
S1130A50E36913F0010F22D100EB4003DA00394BB4
S1130A6013445A6A02F01C02E36913F0030FFBD12A
S1130A70236813F0020F0BD0236823F002032360D2
S1130A80E36913F0030FFBD1E36913F0020FFBD109
S1130A9042F001022260E36913F0030FFBD1E36922
S1130AA013F0010FFBD100EB4003DA00254B134494
S1130AB05B6A2360E36913F0030FFBD100EB40038F
S1130AC0DA00204B13449B6A6360E36913F01F0F41
S1130AD0FBD142000244D1001A4B0B44DA6AA260F3
S1130AE05B6A13F4005F0AD113F4C04F07D100EB23
S1130AF04003DA00134B13441B8EA3810FE0420022
S1130B000244D1000F4B0B44198EA28961F30C02ED
S1130B10A28193F83220A38962F34F33A381094A57
S1130B2043001D18E9000D46114491F83310A173D8
S1130B302A4492F8343084F83030002038BD00BFA5
S1130B40050A00004031000070B50C460646CB2271
S1130B501849003018BF0120174B98472046174BFF
S1130B609847054608B1284670BDB4613146204611
S1130B70134B98472046134B9847002416E041092D
S1130B8000F01F02012393400F4A01F1200642F8AE
S1130B902630BFF34F8FBFF36F8F01F1600642F829
S1130BA0263042F821300130C0B20134032CE6D99A
S1130BB0D9E700BFB431000049070000490A00002A
S1130BC0D5090000ED09000000E100E08269136826
S1130BD043F002031360D36913F0030FFBD1704792
S1130BE0836999627047836901229A7570478369A2
S1130BF002229A757047000070B50C4615460646E9
S1130C0040F22B221649003018BF0120154B98479B
S1130C1034B1022C04D0012C11D0032C17D070BD98
S1130C20B36935B901221A75B3692DB902221A754F
S1130C3070BD01229A75F7E702229A7570BDB369F7
S1130C4015B904221A7570BD04229A7570BDB36972
S1130C5015B180229A75E2E780221A7570BD00BF33
S1130C60B43100004907000008B5024B1868024B74
S1130C70984708BD280000206509000008B5024B0C
S1130C801868024B984708BD280000206509000039
S1130C9008B5024B1868024B984708BD280000208D
S1130CA06509000008B5024B1868024B984708BD57
S1130CB0280000206509000010B50446034B98473E
S1130CC082B221460248034B984710BDDB30000036
S1130CD0440F0020A104000008B56420024B98478B
S1130CE00248034B9847F8E7BD250000D0310000C7
S1130CF0B90C000000B585B0094B984709480A4B68
S1130D0098470A4B0293543301930423009300231E
S1130D10402207490748084CA047084B9847FEE77C
S1130D20D1020000E0310000B90C00002C000020CA
S1130D3000320000D90C000061220000112C0000D8
S1130D4038B505460C462B220849012C8CBF0020DF
S1130D500120074B984721460120064B98472860FD
S1130D6008B1002038BD6FF0130038BD0832000010
S1130D7049070000F517000010B50D4B5B68C3F37D
S1130D80080333B1002100680A4B984750B1002092
S1130D9010BD00231A4619460068074CA04720B12D
S1130DA0002010BD6FF0020010BD6FF0020010BDF6
S1130DB000ED00E00D1A00002918000008B50068D5
S1130DC0034B984708B1002008BD6FF0070008BD29
S1130DD0A51C0000036843B110B504461846044B33
S1130DE0984700232360002010BD0020704700BFF7
S1130DF0711E000000F1080343604FF0FF3282606F
S1130E00C3600361002303607047002303617047DC
S1130E1030B40D68B5F1FF3F02D000F1080202E0E2
S1130E20026904E01A4653681C68A542FAD2536862
S1130E304B6099608A605160086103680133036004
S1130E4030BC704703694268816891608268416878
S1130E5051605A68904205D0002202611868013836
S1130E601860704782685A60F6E7000082B0002379
S1130E7001930D4B1B68B3F1FF3F08D04FF0800383
S1130E8083F31188BFF36F8FBFF34F8FFEE74FF0EB
S1130E90800383F31188BFF36F8FBFF34F8F019BE0
S1130EA0002BFCD002B070470000002000000000BE
S1130EB0074B19680868B0E8F04F80F30988BFF35E
S1130EC06F8F4FF0000080F311887047AFF30080FC
S1130ED0C00B002008480068006880F308884FF0C1
S1130EE0000080F3148862B661B6BFF34F8FBFF37E
S1130EF06F8F00DF00BF000008ED00E0000000007D
S1130F00EFF30980BFF36F8F154B1A681EF0100FB3
S1130F1008BF20ED108A20E9F04F10602DE9090088
S1130F204FF0800080F31188BFF34F8FBFF36F8FB2
S1130F3001F074FB4FF0000080F3118809BC1968BC
S1130F400868B0E8F04F1EF0100F08BFB0EC108A2C
S1130F5080F30988BFF36F8F704700BFAFF3008041
S1130F60C00B0020DFF80C00016841F4700101603F
S1130F707047000088ED00E04FF0807340F8043CB7
S1130F8021F0010140F8081C054B40F80C3C40F8E6
S1130F90202C6FF0020340F8243C4438704700BF13
S1130FA06D0E00004FF0800383F31188BFF36F8F41
S1130FB0BFF34F8F0A4A136801331360012B0DD11D
S1130FC0084B1B6813F0FF0F08D04FF0800383F326
S1130FD01188BFF36F8FBFF34F8FFEE7704700BFD9
S1130FE00000002004ED00E0094B1B6843B94FF0FA
S1130FF0800383F31188BFF36F8FBFF34F8FFEE736
S1131000013B034A13600BB983F31188704700BF97
S11310100000002008B54FF0800383F31188BFF36C
S11310206F8FBFF34F8F054B984718B14FF0805225
S1131030034B1A60002383F3118808BDC12200000A
S113104004ED00E0054B00221A6005490A6042F6EF
S1131050DF61044A116007221A60704710E000E063
S113106018E000E014E000E0544B1A68544B9A4234
S113107008D14FF0800383F31188BFF36F8FBFF360
S11310804F8FFEE74D4B1A684E4B9A4208D14FF0F2
S1131090800383F31188BFF36F8FBFF34F8FFEE795
S11310A0494B1B68D96A494A914208D04FF08003E2
S11310B083F31188BFF36F8FBFF34F8FFEE79A6BF3
S11310C0434B9A4208D04FF0800383F31188BFF357
S11310D06F8FBFF34F8FFEE710B582B000230193EB
S11310E03C4B1A78D2B28DF80220FF221A701B787A
S11310F0DBB28DF803309DF8033003F08003364AE9
S1131100137043B94FF0800383F31188BFF36F8FDB
S1131110BFF34F8FFEE79DF80330DB0911D14FF089
S1131120800383F31188BFF36F8FBFF34F8FFEE704
S1131130019B013301939DF803305B00DBB28DF812
S113114003309DF8033013F0800FF1D1019B082B7D
S11311502DD10022204B5A601F4A53681B0203F40E
S1131160E06353609DF80230DBB21A4A13701B4BE4
S11311701A6842F47F021A601A6842F07F421A60C9
S11311800024043B1C60164B9847164B1C60164BFE
S11311909847164A136843F040431360144B98472A
S11311A0144B9847144B9847204602B010BD019B3E
S11311B0C3F10703084A5360CEE700BF00ED00E027
S11311C071C20F4170C20F4108ED00E0B10E000082
S11311D0010F000000E400E08001002020ED00E0A9
S11311E04510000000000020650F000034EF00E00F
S11311F0D50E00001D2600006D0E0000EFF30583E0
S11312000F2B0FD9104A9B5CDBB2104A1278934221
S113121008D24FF0800383F31188BFF36F8FBFF3BD
S11312204F8FFEE70A4B1B6803F4E063074A5268DA
S1131230934208D94FF0800383F31188BFF36F8F73
S1131240BFF34F8FFEE77047F0E300E0800100201A
S11312500CED00E0094BDA1D22F00702C3F8602907
S11312600020C3F8640940F65811C3F86C19C3F898
S11312706809516003F66813136070478801002001
S1131280F8B5044670B110F1090F0AD8083414F007
S1131290070307D0C3F10803DA43944216D81C4469
S11312A000E00024284B9847284BD3F870397BB1D1
S11312B0002C41DB002C41D0254B1E68B4423FD8A2
S11312C02249D1F8603901F516610AE00024E9E702
S11312D0204B984701221D4BC3F87029E8E71946B3
S11312E013465A68944202D91A68002AF7D11A4A56
S11312F0934227D00D6808351A680A605A68121B91
S1131300102A0CD91F197A605C607C68134900E0CC
S113131011460A6850688442FAD83A600F605A68E5
S1131320B61A0B490E6042F000425A6000221A605D
S11313300B4B98472846F8BD0025F9E70025F7E749
S11313400025F5E70025F3E7952200008801002039
S11313500400002055120000F00A0020E80A0020D2
S113136045240000002837D038B50446A0F108050C
S113137050F8043C002B08DB4FF0800383F3118802
S1131380BFF36F8FBFF34F8FFEE750F8082C42B1C5
S11313904FF0800383F31188BFF36F8FBFF34F8F38
S11313A0FEE723F0004340F8043C0C4B984754F804
S11313B0041C0B4B1A68506881420BD844F8082C63
S11313C01D6054F8041C074A13680B441360064B51
S11313D0984738BD1346EDE7704700BF95220000DB
S11313E0E80A00200400002045240000436A23B1D9
S11313F0036B1868C0F105007047002070470000B7
S113140010B50446064B9847A26BE36B9A4204D08E
S11314100024044B9847204610BD0124F9E700BF7F
S1131420A50F0000E90F000010B50446054B9847CE
S1131430A36B23B10024044B9847204610BD01241C
S1131440F9E700BFA50F0000E90F000070B50446DE
S11314501646856B026C52B90368002B2AD180684A
S1131460184B98470023A3600135A56370BD6EB97E
S11314704068154B9847226C636813446360A26804
S1131480934219D3236863600020EDE7C0680E4BD4
S11314909847236C5B42E2681A44E26021688A42FE
S11314A002D2A2681344E360022E07D145B1013D84
S11314B00020D9E70020D7E70020D5E70020D3E7B4
S11314C00020D1E7E9290000B5300000026C72B1B8
S11314D010B50346C4681444C4608068844201D3D0
S11314E01868D8600846D968014B984710BD704702
S11314F0B530000070B582B00190856C65B1AA6BFF
S1131500EB6B9A4211D34FF0800383F31188BFF33E
S11315106F8FBFF34F8FFEE74FF0800383F3118883
S1131520BFF36F8FBFF34F8FFEE7AA6B934203D8CD
S11315300026304602B070BD95F8454064B20022E2
S113154001A92846124B98470646B4F1FF3F0AD139
S11315506B6A002BEDD005F124000E4B9847002850
S1131560E7D00126E5E70C4B9847A042E1D97F2C50
S113157008D14FF0800383F31188BFF36F8FBFF35B
S11315804F8FFEE7631C5BB285F84530D1E700BF9F
S11315904D14000051270000B522000038B505465F
S11315A01F4B984795F8454064B208E06B6AB3B1A5
S11315B005F124001B4B984770B9013C64B2002C20
S11315C00DDDAB6C002BF1D02846174B9847002853
S11315D0F3D0164B9847F0E7144B9847EDE7FF23F9
S11315E085F84530124B98470D4B984795F8444081
S11315F064B201E0013C64B2002C0ADD2B6943B102
S113160005F11000074B98470028F3D0074B984783
S1131610F0E7FF2385F84430054B984738BD00BFF9
S1131620A50F000051270000F5140000F128000068
S1131630E90F000038B560B10446C26B002A42D0FD
S11316404FF0FF33B3FBF2F3026C93420AD2002053
S11316503AE04FF0800383F31188BFF36F8FBFF339
S11316604F8FFEE70D461E4B98472168E26B236CB3
S113167003FB0210A0600020A0636160013A02FB3A
S11316800313E360FF2384F8443084F8453095B9AC
S1131690236963B104F11000124B984738B14FF03D
S11316A08052114B1A60BFF34F8FBFF36F8F0F4BF4
S11316B09847012008E004F110000D4DA84704F1FB
S11316C02400A847F3E7002040B94FF0800383F3D8
S11316D01188BFF36F8FBFF34F8FFEE738BD00BF94
S11316E0A50F00005127000004ED00E0E90F000001
S11316F0F50D000038B51D46049C0B4659B924600D
S1131700E063236401212046044B984784F8505039
S11317100023A36438BD2260F2E700BF3516000041
S1131720ABB130B585B01C46D0B102B1C1B102B97C
S1131730B1B954230393039B542B1AD04FF0800365
S113174083F31188BFF36F8FBFF34F8FFEE74FF022
S1131750800383F31188BFF36F8FBFF34F8FFEE7CE
S11317604FF0800383F31188BFF36F8FBFF34F8F64
S1131770FEE7039B012384F8463000949DF8203053
S1131780024DA847204605B030BD00BFF516000045
S1131790F0B583B000B307464FF0FF30B0FBF7F06D
S11317A0884219D301FB07F010F1550F14D81646DF
S11317B00C4654300D4B9847054650B1002380F831
S11317C046300090334600F1540221463846084C16
S11317D0A047284603B0F0BD4FF0800383F311887F
S11317E0BFF36F8FBFF34F8FFEE700BF811200007E
S11317F0F516000008B1884208D24FF0800383F345
S11318001188BFF36F8FBFF34F8FFEE710B50C46FF
S113181002220021034B9847034600B18463184613
S113182010BD00BF91170000F0B585B0019260B102
S1131830044699B10125BDB94FF0800383F31188A3
S1131840BFF36F8FBFF34F8FFEE74FF0800383F337
S11318501188BFF36F8FBFF34F8FFEE7026C0AB995
S11318600125E8E70025E6E7022B09D06DB94FF022
S1131870800383F31188BFF36F8FBFF34F8FFEE7AD
S1131880E26B012AF2D00025F0E71E460F46514BC9
S1131890984710B9019B03B1002545B94FF0800367
S11318A083F31188BFF36F8FBFF34F8FFEE70025DB
S11318B040E0A56B324639462046474B9847A36C17
S11318C09BB1022E00D15DB92046444B984738B1F4
S11318D04FF08052424B1A60BFF34F8FBFF36F8FAC
S11318E0404B9847012005B0F0BD636A73B104F121
S11318F024003D4B98470028F2D04FF08052384BDB
S11319001A60BFF34F8FBFF36F8FE9E70028E7D06A
S11319104FF08052324B1A60BFF34F8FBFF36F8F7B
S1131920DEE7304B98470020DDE720462F4B9847F1
S11319302F4B98472F4B9847A26BE36B9A42B8D32F
S1131940022EB6D0019B002BEBD01DB902A82A4B66
S113195098470125234B9847284B9847254B984790
S113196094F844305BB2B3F1FF3F02D1002384F812
S1131970443094F845305BB2B3F1FF3F02D1002309
S113198084F84530174B984701A902A81C4B984787
S1131990C8B920461B4B98470028C6D0019904F1CA
S11319A01000194B98472046104B9847104B984706
S11319B00028BFD14FF08052094B1A60BFF34F8FFC
S11319C0BFF36F8FB6E72046084B9847084B9847FC
S11319D0002088E7012900004D140000F5140000E0
S11319E004ED00E0E90F0000512700009D15000000
S11319F045240000A50F00004D280000952200009A
S1131A006128000001140000B1260000F8B558B1A7
S1131A100446036C8BB14FF0800383F31188BFF34A
S1131A206F8FBFF34F8FFEE74FF0800383F311886E
S1131A30BFF36F8FBFF34F8FFEE7036853B10123EA
S1131A4073B94FF0800383F31188BFF36F8FBFF333
S1131A504F8FFEE783680BB90123F1E70023EFE71B
S1131A600F46294B9847EFF311864FF0800383F319
S1131A701188BFF36F8FBFF34F8FA36BE26B934259
S1131A8033D294F845506DB20133A363B5F1FF3FEF
S1131A9016D1A36C4BB120461C4B984738B347B3BF
S1131AA00120386086F31188F8BD636A1BB304F122
S1131AB02400174B984700B30FB301203860F1E7B7
S1131AC0144B9847A8421CD97F2D08D14FF08003AE
S1131AD083F31188BFF36F8FBFF34F8FFEE76B1C47
S1131AE05BB284F845300120DCE70020DAE701200E
S1131AF0D8E70120D6E70120D4E70120D2E701206E
S1131B00D0E70120CEE700BFFD110000F51400006E
S1131B1051270000B5220000F0B585B0019260B1F4
S1131B20044699B10125BDB94FF0800383F31188B0
S1131B30BFF36F8FBFF34F8FFEE74FF0800383F344
S1131B401188BFF36F8FBFF34F8FFEE7036C0BB9A0
S1131B500125E8E70025E6E70E46454B984710B90E
S1131B60019B03B1002545B94FF0800383F311882D
S1131B70BFF36F8FBFF34F8FFEE700272FE031468F
S1131B8020463C4B9847013DA563236963B104F1AA
S1131B901000394B984738B14FF08052374B1A60D8
S1131BA0BFF34F8FBFF36F8F354B9847012005B0BC
S1131BB0F0BD334B98470020F9E702A8314B984712
S1131BC0012716E0002384F844301EE0002384F843
S1131BD0453020E020462C4B98472C4B98472C4B03
S1131BE09847A56B002DCAD1019B002BE1D0002F93
S1131BF0E3D0234B9847274B9847254B984794F8B5
S1131C0044305BB2B3F1FF3FDCD094F845305BB2B3
S1131C10B3F1FF3FDAD01A4B984701A902A81E4B33
S1131C209847C8B920461D4B98470028D2D001993F
S1131C3004F124001A4B98472046134B9847134B42
S1131C4098470028CBD14FF080520C4B1A60BFF359
S1131C504F8FBFF36F8FC2E720460B4B98470B4B58
S1131C60984720460D4B98470028B8D000209EE79F
S1131C7001290000CD1400005127000004ED00E00C
S1131C80E90F00004D2800009D15000045240000C8
S1131C90A50F00009522000061280000291400000F
S1131CA0B126000070B584B0019158B10446036CAC
S1131CB08BB14FF0800383F31188BFF36F8FBFF3B1
S1131CC04F8FFEE74FF0800383F31188BFF36F8FCC
S1131CD0BFF34F8FFEE7564B984760B9019B63B93A
S1131CE0012363B94FF0800383F31188BFF36F8F2F
S1131CF0BFF34F8FFEE70123F3E70023F1E700254D
S1131D002E4645E0013BA363236813B9494B98472A
S1131D10A060236963B104F11000474B984738B1C0
S1131D204FF08052454B1A60BFF34F8FBFF36F8F54
S1131D30434B98470125284604B070BD404B984753
S1131D400025F8E702A83F4B984701262AE0002324
S1131D5084F8443032E0002384F8453034E03A4BD0
S1131D609847A068394B98470546354B98473BE060
S1131D702046374B9847374B984709E02046344B69
S1131D809847344B98472046334B9847002840D116
S1131D902D4B9847A36B002BB4D1019B002BCDD0C6
S1131DA0002ECFD0264B98472C4B9847264B98476C
S1131DB094F844305BB2B3F1FF3FC8D094F8453097
S1131DC05BB2B3F1FF3FC6D01D4B984701A902A8EF
S1131DD0234B98470028D1D120461F4B9847002811
S1131DE0C6D02368002BBAD0019904F124001D4BFE
S1131DF098472046164B9847164B98470028C7D15A
S1131E004FF080520D4B1A60BFF34F8FBFF36F8FAB
S1131E10BEE7002D8FD00C4B98472046124B9847B5
S1131E200146A068114B9847054B9847002582E767
S1131E30012900006D2B00005127000004ED00E093
S1131E40E90F00004D280000A50F00002129000023
S1131E509D1500004524000029140000952200006F
S1131E6061280000B1260000ED130000A12A000043
S1131E7008B518B190F846204AB108BD4FF0800368
S1131E8083F31188BFF36F8FBFF34F8FFEE7014BCE
S1131E909847F2E76513000070B504460D461646F0
S1131EA0124B984794F844305BB2B3F1FF3F0DD026
S1131EB094F845305BB2B3F1FF3F0BD00C4B98471D
S1131EC0A36B5BB120460B4B984770BD002384F88D
S1131ED04430EDE7002384F84530EFE732462946E5
S1131EE004F12400044B9847ECE700BFA50F000061
S1131EF0E90F00009D150000ED260000064B9B6ACB
S1131F00012BFBD94FF08052044B1A60BFF34F8F63
S1131F10BFF36F8FF2E700BFFC0A002004ED00E07E
S1131F20094BD3F88C301B683BB1074BD3F88C209A
S1131F30D2681268C3F8902070474FF0FF32024B0A
S1131F40C3F89020704700BFFC0A00202DE9F04739
S1131F5080468A4616469946089D099F0A9C920027
S1131F60A521206B1F4B9847226B06F18043013B50
S1131F7002EB830323F00706BAF1000F0FD000230E
S1131F8008E01AF80310E21882F834101AF8032053
S1131F9012B10133072BF4D9002384F83B30042D0C
S1131FA008D94FF0800383F31188BFF36F8FBFF319
S1131FB04F8FFEE7E5626564201DDFF830A0D0474F
S1131FC004F11800D0472461C5F10505A5616462D8
S1131FD04A4641463046044B9847206007B13C606E
S1131FE0BDE8F087CB300000790F00000B0E000035
S1131FF02DE9F04387B00F9E109C76B1B4B15425FF
S11320000595059D542D1AD04FF0800383F3118854
S1132010BFF36F8FBFF34F8FFEE74FF0800383F35F
S11320201188BFF36F8FBFF34F8FFEE74FF080032C
S113203083F31188BFF36F8FBFF34F8FFEE798468A
S1132040174689460546059B5422002120460B4B22
S113205098472663022384F85130002303930294A3
S1132060119B01930E9B009343463A4649462846EA
S1132070034DA847204607B0BDE8F083CB300000ED
S11320804D1F0000F8B5002407E004EB8402930020
S11320900D4818440D4B98470134042CF5D90C4CC9
S11320A004F194073846094DA84704F1A8063046C0
S11320B0A84704F11400A8472046A847C4F88C7028
S11320C0C4F8BC60F8BD00BF240B0020F50D00006F
S11320D0FC0A002070B50446314B9847314BD3F8C5
S11320E0C0200132C3F8C020D3F8C430002B4DD037
S11320F02C4BD3F8C8304BB92A4BD3F8C430DA6A26
S1132100E36A9A4202D8274BC3F8C440254AD2F85E
S1132110CC300133C2F8CC30E363E36AD2F8D02088
S1132120934202D91F4AC2F8D0301E4D03EB8303F9
S11321309A002A44D36AA3609A68E2609968221DCF
S11321404A609A60E26A05F1280193009E18B00083
S113215006460144616131462944896A01313246A7
S11321602A449162104B9847D5F8C8306BB1D5F822
S1132170C430DA6AE36A9A4207D24FF080520B4BBA
S11321801A60BFF34F8FBFF36F8F70BD054BC3F859
S1132190C440D3F8C030012BB8D1054B9847B5E7FC
S11321A0A50F0000FC0A0020E90F000004ED00E088
S11321B0852000002DE9F04104468846254BD3F8DC
S11321C0D450D3F88C60D3F8BC70D3F8C400043076
S11321D0214B9847B4F1FF3F15D02C441D4BD3F845
S11321E0C4305C60A5422BD81A4DD5F8C410043114
S11321F030461A4B9847D5F890309C4201D2C5F826
S11322009040BDE8F081B8F1000FE6D0114B5A6858
S1132210D3F8C4108A60D3F8C4109068C86090687A
S1132220D3F8C41004314160D3F8C4100431916070
S1132230D3F8C42053611A6801321A60BDE8F081F2
S1132240044BD3F8C41004313846044B9847BDE816
S1132250F08100BFFC0A0020450E0000110E0000B2
S113226030B587B006AC002544F8045D03940C9C9B
S113227002940B9C01940A9C0094044CA04708B15E
S1132280034B9847059807B030BD00BFF11F00000D
S1132290D5200000034AD2F8D8300133C2F8D83030
S11322A0704700BFFC0A0020014BD3F8D4007047EC
S11322B0FC0A0020014BD3F8C0007047FC0A002040
S11322C0F8B55E4BD3F8D830002B40F0AD805B4BB3
S11322D0D3F8D4400134C3F8D440E4B9D3F88C30F3
S11322E01B6843B14FF0800383F31188BFF36F8FF2
S11322F0BFF34F8FFEE7514BD3F88C20D3F8BC10BB
S1132300C3F88C10C3F8BC20D3F8E0200132C3F822
S1132310E0204B4B9847494BD3F890309C4271D204
S11323200020464AD2F8C430DB6A03EB83039900E9
S11323300A44936A012B00D90120404BD3F8DC30C6
S1132340002B79D1F8BD01203C4BD3F88C301B68AD
S1132350002B59D0394BD3F88C30DB68DB685A68D2
S1132360944257D35A699968DD688D60D9689D682D
S11323704D6051681E1DB14250D000215961116851
S1132380013911609A6A7AB1D9691D6A8D60196A36
S1132390DD694D60556803F118018D4241D000217B
S11323A09962116801391160DA6A2449D1F8D010B0
S11323B08A4202D92149C1F8D020204902EB820285
S11323C095000D44EA6A9A609568DD6095686E60D0
S11323D09660DD6A01F12806AA0002EB050E4FEAB9
S11323E08E07BE463E445E6176460E44B66A0136AA
S11323F075460D44AE62DA6AD1F8C430DB6A9A429B
S1132400A1D8A1E700209FE74FF0FF320B4BC3F8A0
S1132410902086E7094BC3F8902082E7D968516081
S1132420ABE7196A5160BAE7044AD2F8E4300133E1
S1132430C2F8E4300020F8BD0120F8BDFC0A0020F9
S1132440211F000070B5574B9847574BD3F8D8302D
S113245043B94FF0800383F31188BFF36F8FBFF349
S11324604F8FFEE7504BD3F8D820013AC3F8D82059
S1132470D3F8D830002B40F091804B4BD3F8C030C8
S1132480002B58D00023484A5269002A5ED0464B9C
S11324901B6ADB689A6AD969186A8860196AD869FC
S11324A04860506803F11801884249D000219962BC
S11324B01168013911605A699968D8688860D968C7
S11324C09868486051681C1DA1423CD000215961A4
S11324D0116801391160DA6A3349D1F8D0108A429F
S11324E002D93149C1F8D0202F4902EB8202900071
S11324F00844C26A9A609068D860906844609460A6
S1132500D86A01F1280482001618B5002E462C441E
S11325105C6134460C44A46A013430460844846245
S1132520D86AD1F8C420D26A9042ACD901211E4A9B
S1132530C2F8DC10A7E700241C4B9847204670BD66
S1132540196A5160B2E7D9685160BFE70BB1184B03
S11325509847154BD3F8E44094B9134BD3F8DC30C7
S1132560F3B1114BD3F8C4304FF08052114B1A60C1
S1132570BFF34F8FBFF36F8F0124DDE7013C08D019
S11325800D4B98470028F9D00122074BC3F8DC20F3
S1132590F4E70022044BC3F8E420DEE70024CBE791
S11325A00024C9E7A50F0000FC0A0020E90F000081
S11325B0211F000004ED00E0C122000010B550B955
S11325C0002038B94FF080520F4B1A60BFF34F8F81
S11325D0BFF36F8F10BD04460C4B98470C4BD3F8D8
S11325E0D830012B08D04FF0800383F31188BFF358
S11325F06F8FBFF34F8FFEE700212046054B9847AE
S1132600054B9847DDE700BF04ED00E0952200008C
S1132610FC0A0020B521000045240000234BD3F818
S1132620D8307BB9214B0022C3F8DC20D3F8D0305A
S113263003EB830291001D4A0A44926A82B933B1C2
S1132640013BF5E70122194BC3F8DC2070474FF03A
S1132650800383F31188BFF36F8FBFF34F8FFEE7BF
S113266010B4124A9900CC18A0001044C46A6468DB
S1132670C462283219448800014608300244944256
S11326800FD00A4A03EB830081001144C96AC96868
S1132690C2F8C410C2F8D030D2F8C4305DF8044B8C
S11326A07047024A0A44516BD162EAE7FC0A0020EF
S11326B040B94FF0800383F31188BFF36F8FBFF3EA
S11326C04F8FFEE710B50C46054BD3F8C4101831F4
S11326D0044B984701212046034B984710BD00BF87
S11326E0FC0A0020110E0000B521000010B370B5E3
S11326F00E4604464068144BD3F8C410C861D3F89E
S1132700C41085680D628168D3F8C45018354D60D3
S1132710D3F8C45018358560D3F8C4309C6223685C
S1132720013323600AB14FF0FF3611463046074BA0
S1132730984770BD4FF0800383F31188BFF36F8F08
S1132740BFF34F8FFEE700BFFC0A0020B521000055
S1132750C368DB68002B57D070B49A6AD969186AC9
S11327608860196AD8694860516803F11800814289
S113277053D000219962116801391160324AD2F8AC
S1132780D820002A4FD15A699968D8688860D968D6
S11327909868486051681C1DA14241D000215961CC
S11327A0116801391160DA6A2749D1F8D0108A42D8
S11327B002D92549C1F8D020234902EB82029000B6
S11327C00844C26A9A609068D860906844609460D3
S11327D0D86A01F1280482001618B5002E462C444C
S11327E05C6134460C44A46A013431448C62DA6A74
S11327F0154BD3F8C430DB6A9A4223D90120124B1B
S1132800C3F8DC0070BC70474FF0800383F3118879
S1132810BFF36F8FBFF34F8FFEE7196A5160A8E7CC
S1132820D9685160BAE7084A9169D9618C681C6219
S11328308C686060886002F1140199625169013109
S11328405161D4E70020DDE7FC0A0020034BD3F8F4
S1132850E0200260D3F8D43043607047FC0A0020C3
S1132860F8B5D8B1054611B30C461D4B98471D4B1E
S1132870D3F8D4006968421A2368B3F1FF3F2DD01E
S11328802F68184ED6F8E060B74201D0884217D2BC
S11328909A421CD300232360012414E04FF08003E8
S11328A083F31188BFF36F8FBFF34F8FFEE74FF0B1
S11328B0800383F31188BFF36F8FBFF34F8FFEE75D
S11328C0002323600124084B98472046F8BD9B1A37
S11328D023602846054B98470024F4E70024F2E7D8
S11328E0A50F0000FC0A0020E90F00004D2800009D
S11328F00122024BC3F8DC20704700BFFC0A002011
S1132900064BD3F8C8302BB1044BD3F8D8301BB9DD
S1132910022070470120704700207047FC0A002005
S1132920002858D070B50446C26A2C49D1F8C410A6
S1132930C96A8A4244D28169002906DB2749D1F851
S1132940C410C96AC1F105018161606902EB8202A8
S11329509100234A0A44904206D0204AD2F8C42067
S1132960D26AE262012070BD251D28461D4B98479E
S11329701A4AD2F8C430DB6AE362D2F8D020934218
S113298002D9164AC2F8D030144A03EB83039900E3
S11329901144CB6AA3609968E16099684D609D60B9
S11329A0E16A02F128008B005E18B50028446061DA
S11329B028461044806A01302A449062012070BD88
S11329C0426C064BD3F8C430DB6A9A4201D2012030
S11329D070BD002070BD0020704700BFFC0A0020BD
S11329E0240B0020450E000000284FD070B504468B
S11329F0294BD3F8C430984208D04FF0800383F3B6
S1132A001188BFF36F8FBFF34F8FFEE7836C43B919
S1132A104FF0800383F31188BFF36F8FBFF34F8FA1
S1132A20FEE7013B8364C16A426C914230D0002BC3
S1132A3030D1051D2846194B9847636CE362C3F1F6
S1132A400502A261144AD2F8D020934202D9124A54
S1132A50C2F8D030104A03EB830399001144CB6AC7
S1132A60A3609968E16099684D609D60E16A02F134
S1132A7028008B005E18B500284460612846104485
S1132A80806A01302A449062012070BD00207047A2
S1132A90002070BD002070BDFC0A0020450E00001F
S1132AA000285BD070B50446806C40B94FF08003B9
S1132AB083F31188BFF36F8FBFF34F8FFEE7626C10
S1132AC08A4200D20A46E16A8A4201D0012800D033
S1132AD070BD2348D0F8C400844208D14FF080036D
S1132AE083F31188BFF36F8FBFF34F8FFEE7E2626A
S1132AF0A069002802DBC2F10502A261636901EB4F
S1132B0081018800174A02449342E1D1251D2846D9
S1132B10154B9847E36A124AD2F8D020934202D95F
S1132B200F4AC2F8D0300E4A03EB830399001144D4
S1132B30CB6AA3609968E16099684D609D60E16A21
S1132B4002F128008B005E18B50028446061284615
S1132B501044806A01302A449062B9E7704700BF8C
S1132B60FC0A0020240B0020450E0000034BD3F880
S1132B70C40010B1836C013383647047FC0A0020E5
S1132B8010B4064B03F1E804046003F59E730B6074
S1132B90402313605DF8044B704700BFFC0A00201B
S1132BA030B58BB00023072B08DC154AD25C0AA988
S1132BB0194401F8082C0AB10133F4E70025012077
S1132BC0002D01DD0BB030BD00240594069407AA46
S1132BD006A905A80B4B9847059B0293069B0193F6
S1132BE000942346079A08A90748084CA04720B137
S1132BF001200028E6D00135E2E70020F9E700BF14
S1132C0050320000812B0000FD1E000061220000F4
S1132C1008B5174B9847012807D0012808D0B0F110
S1132C20FF3F1BD0134B1B6808BD134B9847F4E7B9
S1132C304FF0800383F31188BFF36F8FBFF34F8F7F
S1132C400E4B4FF0FF32C3F890200122C3F8C82086
S1132C500022C3F8D4200A4B9847E3E74FF08003DF
S1132C6083F31188BFF36F8FBFF34F8FFEE700BF6D
S1132C70A12B000008000020F92F0000FC0A00200E
S1132C806910000010B4064B03F50F74046003F5DB
S1132C9024730B60402313605DF8044B704700BF3E
S1132CA0FC0A0020064B1A6813682BB90123036041
S1132CB023B9D368186870470023F8E700207047E9
S1132CC08C0E002008B54160006191420CD8D21AE4
S1132CD083699A4201D3012008BD011D094B58683C
S1132CE0094B9847002008BD9A4201D2994206D266
S1132CF0011D044B1868044B9847002008BD0120AF
S1132D0008BD00BF8C0E0020110E0000F8B504466B
S1132D100D46174604E0A3691D44236A20469847DC
S1132D20A1692B463A4629442046024EB047002862
S1132D30F1D1F8BDC52C000070B505460E460D4B0B
S1132D401B68DB68DC68201D0B4B984794F828301F
S1132D5013F0040F07D123F0010384F82830236A09
S1132D602046984770BD324629462046034B984773
S1132D70F5E700BF8C0E0020450E00000D2D00006D
S1132D8008B505E0DB684FF0FF311868054B98473C
S1132D90054B1B681A68002AF4D1034A5168116074
S1132DA0536008BD392D00008C0E002038B505464F
S1132DB0084B98470446084B9B68984205D3002368
S1132DC02B60054B9C60204638BD044B984701237B
S1132DD02B60F6E7A92200008C0E0020812D000054
S1132DE070B582B006460C46174B984701A8174B9E
S1132DF09847019B2BBB05460CB9B04218D224B1AD
S1132E00134B5B681B68D3B901242246711B104B1A
S1132E10D868104B9847104B984738B94FF08052F8
S1132E200E4B1A60BFF34F8FBFF36F8F02B070BDAC
S1132E30094B984729463046094B9847F6E7002442
S1132E40E3E7054B9847F1E795220000AD2D00001C
S1132E508C0E0020991E00004524000004ED00E0C3
S1132E60392D000070B584B00023019302930393BD
S1132E70002201A9394BD868394B984700286AD0F9
S1132E80019B002BF4DB039C636913B1201D354BBC
S1132E9098476846344B98470546019B013B082BED
S1132EA0E6D8DFE803F005052A314A05052A310092
S1132EB094F8283043F0010384F828300299A0697B
S1132EC00B462A4601442046284EB0470028CFD05E
S1132ED094F8283013F0040F07D123F0010384F889
S1132EE02830236A20469847C2E7A3692A460299F4
S1132EF0194420461E4B9847F3E794F8283023F0F2
S1132F00010384F82830B3E794F8283043F0010330
S1132F1084F828300299A16131B103460246014484
S1132F202046124CA047A3E74FF0800383F3118897
S1132F30BFF36F8FBFF34F8FFEE794F8283013F081
S1132F40020F04D023F0010384F8283090E72046D0
S1132F50084B98478CE704B070BD00BF8C0E00206E
S1132F60191B0000450E0000AD2D0000C52C00000B
S1132F700D2D00006513000000B583B001A8044BBB
S1132F8098470199034B9847034B9847F6E700BFCE
S1132F90A52C0000E12D0000652E0000F0B583B0E3
S1132FA0104B9847104BDB681BB1104B984703B08C
S1132FB0F0BD0D4C04F1100630460D4FB84704F136
S1132FC024052846B847266065600023009304F171
S1132FD0380304F18C020C210220064DA847E0605E
S1132FE0E3E700BFA50F00008C0E0020E90F0000EE
S1132FF0F50D00002117000010B588B0154B984757
S1133000154BDB6813B300240594069407AA06A99C
S113301005A8124B9847059B0293069B0193022334
S113302000932346079A0E490E480F4CA0470A4BBB
S1133030C3F8A40000B1012050B94FF0800383F31A
S11330401188BFF36F8FBFF34F8FFEE70020F3E7C4
S113305008B010BD9D2F00008C0E0020852C0000B0
S113306058320000792F00006122000070B50D4E27
S11330700D4CA41BA4100025A54209D10B4E0C4CE9
S113308000F0EEF8A41BA4100025A54205D170BDE4
S113309056F8253098470135EEE756F8253098471D
S11330A00135F2E76C3200006C3200006C32000033
S11330B07032000010B5431E0A44914200D110BD85
S11330C011F8014B03F8014FF7E70244034693421A
S11330D000D1704703F8011BF9E7034613F8012BED
S11330E0002AFBD1181A0138704700002E2E2F68D1
S11330F0616C2F7372632F68616C5F696F2E63005C
S11331002E2E2F68616C2F7372632F68616C5F754C
S1133110736172745F6F732E630000002E2E2F682C
S1133120616C2F7574696C732F7372632F75746976
S11331306C735F72696E676275666665722E630092
S113314000300040003400400020014100400141B3
S1133150000000430004004300080043000C004347
S11331600200000004001040000003000200700090
S1133170ADD80000000000000000000000000000C6
S1133180000000000000000000000000000000003B
S1133190000000000000000000000000000000002B
S11331A0000000000000000000000000000000001B
S11331B0000000002E2E2F68706C2F736572636FF1
S11331C06D2F68706C5F736572636F6D2E630000A2
S11331D06578616D706C655461736B200D0A000035
S11331E00D0A4578616D706C6520467265655254B0
S11331F04F532050726F6A6563740D0A000000001B
S11332006578616D706C65002E2E2F746869726428
S113321070617274792F52544F532F6672656572C0
S1133220746F732F4672656552544F535631302E66
S1133230302E302F72746F735F706F72742E630050
S11332400925630925750925750925750D0A0000E9
S113325049444C4500000000546D722053766300CD
S1133260F8B500BFF8BC08BC9E4670478902000050
S1133270F8B500BFF8BC08BC9E4670476502000064
S10F3280AAAAAAAA580900000400000031
S9030000FC
