S010000052544F535F4875622E737265634E
S113000038630120D5020000D1020000D1020000B3
S1130010D1020000D1020000D10200000000000063
S1130020000000000000000000000000110E0000AD
S1130030D102000000000000610E0000750F0000F6
S1130040D1020000D1020000D1020000D102000060
S1130050D1020000D1020000D1020000D102000050
S1130060D1020000D1020000D1020000D102000040
S1130070D1020000D1020000D1020000D102000030
S1130080D1020000D1020000D1020000D102000020
S1130090D1020000D1020000D1020000D102000010
S11300A0D1020000D1020000D1020000D102000000
S11300B0D1020000D1020000D1020000D1020000F0
S11300C0D1020000D1020000D1020000D1020000E0
S11300D0D1020000D1020000D1020000D1020000D0
S11300E0D1020000D1020000000000000000000066
S11300F000000000BD070000D1020000D102000092
S1130100D1020000D1020000D1020000D10200009F
S1130110D1020000D1020000610A0000750A00004B
S1130120890A00009D0A0000D1020000D1020000EB
S1130130D1020000D1020000D1020000D10200006F
S1130140D1020000D1020000D1020000D10200005F
S1130150D1020000D1020000D1020000D10200004F
S1130160D1020000D1020000D1020000D10200003F
S1130170D1020000D1020000D1020000D10200002F
S1130180D1020000D1020000D1020000D10200001F
S1130190D1020000D1020000D1020000D10200000F
S11301A0D1020000D1020000D1020000D1020000FF
S11301B0D1020000D1020000D1020000D1020000EF
S11301C0D1020000D1020000D1020000D1020000DF
S11301D0D1020000D1020000D1020000D1020000CF
S11301E0D1020000D1020000D1020000D1020000BF
S11301F0D1020000D1020000D1020000D1020000AF
S1130200D1020000D1020000D1020000D10200009E
S1130210D1020000D1020000D1020000D10200008E
S1130220D1020000D1020000D1020000D10200007E
S1130230D1020000D1020000D1020000D10200006E
S1130240D1020000D1020000D1020000D10200005E
S1130250D1020000D1020000D1020000D10200004E
S1130260D102000010B5054C237833B9044B13B107
S11302700448AFF300800123237010BD70000020F8
S1130280000000009C4200000C4B43B10C480D4997
S113029010B5AFF300800C48036823B910BD0A48B9
S11302A0036833B97047094B002BF7D0BDE8104001
S11302B01847064B002BF5D0184700BF000000007C
S11302C09C420000740000209C42000000000000DA
S11302D0FEE7000008B5154B154A9A4209D0134BA6
S11302E0134A03E0116819600433043211498B4244
S11302F0F8D3114B02E000221A6004330F4A9342F0
S1130300F9D30F4B0F4A22F07F029A60D3F888206A
S113031042F47002C3F88820BFF34F8FBFF36F8F8E
S1130320094B9847094B9847FEE700BF000000209F
S11303309C42000070000020700000203463002004
S113034000ED00E000000000712E0000B10A000082
S113035010B50446034B984701462046024B984784
S113036010BD00BF153100002D0D00000FB410B5F5
S113037082B04FF0FF312A4B18682A4B984720B9B6
S113038002B0BDE8104004B0704705AB0193264CA1
S1130390322200212046254B9847019A0499204691
S11303A0234B9847234B1B88632B2CD82046224B86
S11303B0984782B2322A00D932221E4C60883423F4
S11303C003FB00F3083323441749981D1B4B98473C
S11303D023880133238062880132194981FB023169
S11303E0D317C3EB6113642101FB13236380114B07
S11303F09B68642B0CD800231A46194608480068E9
S1130400104CA047BCE70B4A936801339360EEE7B6
S11304100022084B9A600C480C4B9847EBE700BF4E
S11304208C000020A91A0000B0620020CF2E00002A
S113043055310000544E002015310000B92E000043
S11304401F85EB51FD1600008C4000005103000095
S1130450F8B5154B1F88002622E0134CA0883425DC
S113046005FB00F0083020440630104B9847A08864
S113047005FB00F0083020443222002106300C4BEA
S11304809847A38801339AB20A4BA3FB02135B0972
S1130490642101FB1323A3802388013B23800136BD
S11304A0BE42DADBF8BD00BF544E00205103000009
S11304B0CF2E00001F85EB5108B501200A4B984749
S11304C00A4B18600A4A0023538093809360138078
S11304D006E03422064902FB031200219181013314
S11304E0632BF6DD08BD00BFFD1800008C00002062
S11304F0544E002008B54FF0FF31084B1868084BE4
S113050098470028F7D0074B984700231A46194606
S113051002480068044CA047EDE700BF8C000020AF
S1130520A91A000051040000FD16000070B50D4624
S11305301646044668B151B1012034220649074BDE
S113054098472368324629462046984770BD0020C4
S1130550F3E70020F1E700BFA4400000D906000043
S113056070B50D461646044668B151B101203D22CE
S11305700649074B98476368324629462046984700
S113058070BD0020F3E70020F1E700BFA4400000A5
S1130590D9060000F8B50E461746054608B311B350
S11305A01ABB0020F1221249124B984705F10804A6
S11305B02046114B98470028F8D00025715D20464D
S11305C00E4B984720460C4B98470028FAD001352B
S11305D0BD42F3D320460A4B98470028FAD0284658
S11305E0F8BD0020DEE70020DCE70120DAE700BFE9
S11305F0B8400000D9060000430A0000350A000094
S11306004D0A00002DE9F0410F4690460546C8B159
S1130610D1B1DAB900204FF486720D490D4B9847D9
S1130620002605F1080420460B4B98470028F8D013
S113063020460A4B9847B85501364645F1D3304613
S1130640BDE8F0810020E6E70020E4E70120E2E7CE
S1130650B8400000D9060000570A00003B0A000019
S113066038B50D460446A0B189B1012034220A49A7
S11306700A4B9847294604F10800094B984703465A
S113068018B9084A6260084A2260184638BD00203A
S1130690ECE70020EAE700BFB8400000D9060000FC
S11306A0F5090000050600009505000010B5044694
S11306B053220649003018BF0120054B984704F126
S11306C00800044B9847002010BD00BFB84000004C
S11306D0D9060000210A000000B900BE70470000DE
S11306E00346064A126822B1044A106803441360A0
S11306F070470349014A1160F6E700BF90000020EB
S1130700386301204FF0FF3070474FF400534B60C3
S113071000207047012070470020704708B5084A40
S113072013889BB21380074B9847074B9847074B96
S11307309847074B984740F6FF70064B984708BD0B
S113074000400041890700009D0700007D0700006C
S1130750B90700005907000010F0010F08D0054A3E
S1130760054B1A62044B5A6843F6FD731A42F9D1D9
S1130770704700BF01010100001C00400122014B31
S11307805A71704700080040034BDA6902F47C5246
S1130790DA6100221A74704700140040044A054BC1
S11307A09A61044B1B6913F0020FFAD0704700BF23
S11307B006260003001000407047000000B583B017
S11307C00D4B9B78DBB20193019B13F0020F06D013
S11307D00A4B1B681BB1084A5068984709E0019B03
S11307E013F0010F05D0054B5B6813B1024A506842
S11307F0984703B05DF804FB000002411463002035
S113080070B489B006466C460C4D0FCD0FC495E804
S11308100F0084E80F00002007280AD808AB03EB78
S1130820800353F8203CB34201D00130F4E7C0B256
S113083000E0002009B070BC704700BFD440000045
S113084010B58469237E13F0010F03D0A37D13F048
S1130850010F12D1237E13F0020F03D0A37D13F0F6
S1130860020F0FD1237E13F0040F15D0638B03F016
S1130870370363B1FF23638310BD0123237503682A
S1130880984710BD022323758368984710BD4368B9
S1130890A16AC9B2984710BD237EDB0900D110BDFF
S11308A080232376C3689847638B9BB26383F6E700
S11308B008B50C4B9847002343B140F26B220A4918
S11308C000200A4B98470023184608BD03EB430257
S11308D0D100074A0A4492F820209042F4D0013310
S11308E0DBB2E9E70108000048410000D906000036
S11308F0D440000038B504463C4B9847E36913F0F4
S1130900010F22D100EB4003DA00394B13445A6A39
S113091002F01C02E36913F0030FFBD1236813F008
S1130920020F0BD0236823F002032360E36913F062
S1130930030FFBD1E36913F0020FFBD142F0010274
S11309402260E36913F0030FFBD1E36913F0010F95
S1130950FBD100EB4003DA00254B13445B6A2360B0
S1130960E36913F0030FFBD100EB4003DA00204BE3
S113097013449B6A6360E36913F01F0FFBD14200C9
S11309800244D1001A4B0B44DA6AA2605B6A13F486
S1130990005F0AD113F4C04F07D100EB4003DA0023
S11309A0134B13441B8EA3810FE042000244D10079
S11309B00F4B0B44198EA28961F30C02A28193F8A8
S11309C03220A38962F34F33A381094A43001D18DF
S11309D0E9000D46114491F83310A1732A4492F8AA
S11309E0343084F83030002038BD00BFB108000036
S11309F0D440000038B50C460546BD2205490030F8
S1130A0018BF0120044B98472C602046034B98479D
S1130A1038BD00BF48410000D9060000F5080000B9
S1130A200268136843F002031360D36913F0030FE1
S1130A30FBD170470368996270470368986AC0B233
S1130A4070470368187E00F0010070470368187E41
S1130A50C0F3400070470368187EC0F380007047FD
S1130A6008B5024B1868024B984708BD9400002053
S1130A704108000008B5024B1868024B984708BDAE
S1130A80940000204108000008B5024B1868024B8E
S1130A90984708BD940000204108000008B5024BA7
S1130AA01868024B984708BD9400002041080000D4
S1130AB000B585B0184B9847184B98471848194B00
S1130AC09847194B0293543301930426009600234C
S1130AD04FF4806215491648164DA847164CA4F1E8
S1130AE0A4030293A4F150030193009600234FF44E
S1130AF0806212491248A84704F57B640294114BA2
S1130B000193009600234FF480620F490F48A847D1
S1130B100F4B9847FEE700BF6D0C0000B9040000BE
S1130B2064410000992F00009800002078410000E3
S1130B30F50400003D2000009011002084410000D5
S1130B40452E00009421002090410000550B000028
S1130B50ED29000008B56420064B9847064D0B218B
S1130B602846064CA0471E212846A0474621284671
S1130B70A047F0E799230000A04100006D030000A6
S1130B80104B93F8D92002F0FE0242F0010283F8E0
S1130B90D92093F8BC2002F00F0242F0300283F80F
S1130BA0BC2093F8D82002F0FE0242F0010283F840
S1130BB0D82093F8BC2002F0F00242F0030283F83C
S1130BC0BC20704700800041064B4022C3F8DC2063
S1130BD04322C3F88C20044A936943F4007393615D
S1130BE0704700BF001C00400008004008B5054BDA
S1130BF09847002204490548054B9847054B9847F8
S1130C0008BD00BFC90B000000200141246300207F
S1130C1061060000810B00000A4B4FF48021C3F8E9
S1130C2008114FF08042C3F82821074AC3F828214D
S1130C3093F8522102F0FE0283F85221C3F81411F2
S1130C40704700BF00800041040000C010B5044C90
S1130C502046044B98472046034B984710BD00BFDD
S1130C6024630020AD060000DD0C000008B5044B31
S1130C709847044B9847044B9847044B984708BD42
S1130C801D070000ED0B00004D0C0000190C0000C6
S1130C9058B908B50B4611461846054B9847002825
S1130CA000DB08BD4FF0FF3008BD4FF0FF30704748
S1130CB0090D0000013802280BD808B50B4611466F
S1130CC01846054B9847002800DB08BD4FF0FF305D
S1130CD008BD4FF0FF3070472D0D000070B506467B
S1130CE0064D2B6800219868054CA0472B6800210D
S1130CF05868A047034B1E6070BD00BF0C00002065
S1130D00A92F00009431002008B5064B1B6833B1AD
S1130D100A46014692B21846034B984708BD002084
S1130D2008BD00BF943100206105000008B5064BE2
S1130D301B6833B10A46014692B21846034B9847E2
S1130D4008BD002008BD00BF943100202D0500001F
S1130D5000F1080343604FF0FF328260C360036117
S1130D6000230360704700230361704730B40D68AB
S1130D70B5F1FF3F02D000F1080202E0026904E08D
S1130D801A4653681C68A542FAD253684B609960AE
S1130D908A605160086103680133036030BC7047A6
S1130DA003694268816891608268416851605A6849
S1130DB0904205D00022026118680138186070471B
S1130DC082685A60F6E7000082B0002301930D4B5D
S1130DD01B68B3F1FF3F08D04FF0800383F3118801
S1130DE0BFF36F8FBFF34F8FFEE74FF0800383F3A2
S1130DF01188BFF36F8FBFF34F8F019B002BFCD083
S1130E0002B0704700000020000000000000000055
S1130E10074B19680868B0E8F04F80F30988BFF3FE
S1130E206F8F4FF0000080F311887047AFF300809C
S1130E30D83B002008480068006880F308884FF019
S1130E40000080F3148862B661B6BFF34F8FBFF31E
S1130E506F8F00DF00BF000008ED00E0000000001D
S1130E60EFF30980BFF36F8F154B1A681EF0100F54
S1130E7008BF20ED108A20E9F04F10602DE9090029
S1130E804FF0800080F31188BFF34F8FBFF36F8F53
S1130E9001F0B2FA4FF0000080F3118809BC196820
S1130EA00868B0E8F04F1EF0100F08BFB0EC108ACD
S1130EB080F30988BFF36F8F704700BFAFF30080E2
S1130EC0D83B0020DFF80C00016841F47001016098
S1130ED07047000088ED00E04FF0807340F8043C58
S1130EE021F0010140F8081C054B40F80C3C40F887
S1130EF0202C6FF0020340F8243C4438704700BFB4
S1130F00C90D00004FF0800383F31188BFF36F8F86
S1130F10BFF34F8F0A4A136801331360012B0DD1BD
S1130F20084B1B6813F0FF0F08D04FF0800383F3C6
S1130F301188BFF36F8FBFF34F8FFEE7704700BF79
S1130F400000002004ED00E0094B1B6843B94FF09A
S1130F50800383F31188BFF36F8FBFF34F8FFEE7D6
S1130F60013B034A13600BB983F31188704700BF38
S1130F700000002008B54FF0800383F31188BFF30D
S1130F806F8FBFF34F8F054B984718B14FF08052C6
S1130F90034B1A60002383F3118808BD9D200000D1
S1130FA004ED00E0054B00221A6005490A6042F690
S1130FB0DF61044A116007221A60704710E000E004
S1130FC018E000E014E000E0544B1A68544B9A42D5
S1130FD008D14FF0800383F31188BFF36F8FBFF301
S1130FE04F8FFEE74D4B1A684E4B9A4208D14FF093
S1130FF0800383F31188BFF36F8FBFF34F8FFEE736
S1131000494B1B68D96A494A914208D04FF0800382
S113101083F31188BFF36F8FBFF34F8FFEE79A6B93
S1131020434B9A4208D04FF0800383F31188BFF3F7
S11310306F8FBFF34F8FFEE710B582B0002301938B
S11310403C4B1A78D2B28DF80220FF221A701B781A
S1131050DBB28DF803309DF8033003F08003364A89
S1131060137043B94FF0800383F31188BFF36F8F7C
S1131070BFF34F8FFEE79DF80330DB0911D14FF02A
S1131080800383F31188BFF36F8FBFF34F8FFEE7A5
S1131090019B013301939DF803305B00DBB28DF8B3
S11310A003309DF8033013F0800FF1D1019B082B1E
S11310B02DD10022204B5A601F4A53681B0203F4AF
S11310C0E06353609DF80230DBB21A4A13701B4B85
S11310D01A6842F47F021A601A6842F07F421A606A
S11310E00024043B1C60164B9847164B1C60164B9F
S11310F09847164A136843F040431360144B9847CB
S1131100144B9847144B9847204602B010BD019BDE
S1131110C3F10703084A5360CEE700BF00ED00E0C7
S113112071C20F4170C20F4108ED00E0110E0000C2
S1131130610E000000E400E09831002020ED00E0A2
S1131140A50F000000000020C50E000034EF00E0F1
S1131150350E0000F9230000C90D0000094BDA1D0B
S113116022F00702C3F860290020C3F8640940F69E
S11311705811C3F86C19C3F86809516003F6681371
S113118013607047A0310020F8B5044670B110F127
S1131190090F0AD8083414F0070307D0C3F1080371
S11311A0DA43944216D81C4400E00024284B9847A4
S11311B0284BD3F870397BB1002C41DB002C41D093
S11311C0254B1E68B4423FD82249D1F8603901F555
S11311D016610AE00024E9E7204B984701221D4BE1
S11311E0C3F87029E8E7194613465A68944202D9AD
S11311F01A68002AF7D11A4A934227D00D68083595
S11312001A680A605A68121B102A0CD91F197A60CE
S11312105C607C68134900E011460A6850688442A7
S1131220FAD83A600F605A68B61A0B490E6042F059
S113123000425A6000221A600B4B98472846F8BDBA
S11312400025F9E70025F7E70025F5E70025F3E792
S113125071200000A0310020040000205D11000076
S1131260083B0020003B002021220000002837D04A
S113127038B50446A0F1080550F8043C002B08DBFF
S11312804FF0800383F31188BFF36F8FBFF34F8F49
S1131290FEE750F8082C42B14FF0800383F3118825
S11312A0BFF36F8FBFF34F8FFEE723F0004340F887
S11312B0043C0C4B984754F8041C0B4B1A685068B8
S11312C081420BD844F8082C1D6054F8041C074ACA
S11312D013680B441360064B984738BD1346EDE77B
S11312E0704700BF71200000003B00200400002074
S11312F021220000436A23B1036B1868C0F1050082
S1131300704700207047000010B50446064B98470C
S1131310A26BE36B9A4204D00024044B9847204606
S113132010BD0124F9E700BF050F0000490F0000BC
S113133010B50446054B9847A36B23B10024044B16
S11313409847204610BD0124F9E700BF050F0000AF
S1131350490F000070B504461646856B026C52B9FD
S11313600368002B2AD18068184B98470023A36098
S11313700135A56370BD6EB94068154B9847226C62
S1131380636813446360A268934219D3236863605B
S11313900020EDE7C0680E4B9847236C5B42E2687F
S11313A01A44E26021688A4202D2A2681344E360CC
S11313B0022E07D145B1013D0020D9E70020D7E72F
S11313C00020D5E70020D3E70020D1E7C52700009F
S11313D0B92E0000026C72B110B50346C4681444FF
S11313E0C4608068844201D31868D8600846D9680C
S11313F0014B984710BD7047B92E000070B582B0FC
S11314000190856C65B1AA6BEB6B9A4211D34FF0D6
S1131410800383F31188BFF36F8FBFF34F8FFEE711
S11314204FF0800383F31188BFF36F8FBFF34F8FA7
S1131430FEE7AA6B934203D80026304602B070BD83
S113144095F8454064B2002201A92846124B9847FA
S11314500646B4F1FF3F0AD16B6A002BEDD005F1CB
S113146024000E4B98470028E7D00126E5E70C4BF3
S11314709847A042E1D97F2C08D14FF0800383F331
S11314801188BFF36F8FBFF34F8FFEE7631C5BB20E
S113149085F84530D1E700BF551300002D25000025
S11314A09120000038B505461F4B984795F84540F4
S11314B064B208E06B6AB3B105F124001B4B984792
S11314C070B9013C64B2002C0DDDAB6C002BF1D083
S11314D02846174B98470028F3D0164B9847F0E757
S11314E0144B9847EDE7FF2385F84530124B984796
S11314F00D4B984795F8444064B201E0013C64B256
S1131500002C0ADD2B6943B105F11000074B984705
S11315100028F3D0074B9847F0E7FF2385F84430C1
S1131520054B984738BD00BF050F00002D2500006E
S1131530FD130000CD260000490F000038B560B14E
S11315400446C26B002A42D04FF0FF33B3FBF2F3E0
S1131550026C93420AD200203AE04FF0800383F3F6
S11315601188BFF36F8FBFF34F8FFEE70D461E4BFD
S113157098472168E26B236C03FB0210A0600020F3
S1131580A0636160013A02FB0313E360FF2384F864
S1131590443084F8453095B9236963B104F11000EF
S11315A0124B984738B14FF08052114B1A60BFF379
S11315B04F8FBFF36F8F0F4B9847012008E004F162
S11315C010000D4DA84704F12400A847F3E70020BC
S11315D040B94FF0800383F31188BFF36F8FBFF3DB
S11315E04F8FFEE738BD00BF050F00002D2500001A
S11315F004ED00E0490F0000510D000038B51D4610
S1131600049C0B4659B92460E063236401212046FD
S1131610044B984784F850500023A36438BD2260DB
S1131620F2E700BF3D150000ABB130B585B01C46F4
S1131630D0B102B1C1B102B9B1B954230393039B30
S1131640542B1AD04FF0800383F31188BFF36F8FAC
S1131650BFF34F8FFEE74FF0800383F31188BFF38E
S11316606F8FBFF34F8FFEE74FF0800383F3118832
S1131670BFF36F8FBFF34F8FFEE7039B012384F803
S1131680463000949DF82030024DA847204605B00E
S113169030BD00BFFD150000F0B583B000B30746B0
S11316A04FF0FF30B0FBF7F0884219D301FB07F08D
S11316B010F1550F14D816460C4654300D4B98476C
S11316C0054650B1002380F846300090334600F1BF
S11316D0540221463846084CA047284603B0F0BDC2
S11316E04FF0800383F31188BFF36F8FBFF34F8FE5
S11316F0FEE700BF89110000FD150000F0B585B0BC
S1131700019260B1044699B10125BDB94FF080033F
S113171083F31188BFF36F8FBFF34F8FFEE74FF052
S1131720800383F31188BFF36F8FBFF34F8FFEE7FE
S1131730026C0AB90125E8E70025E6E7022B09D087
S11317406DB94FF0800383F31188BFF36F8FBFF33C
S11317504F8FFEE7E26B012AF2D00025F0E71E4628
S11317600F46514B984710B9019B03B1002545B969
S11317704FF0800383F31188BFF36F8FBFF34F8F54
S1131780FEE7002540E0A56B324639462046474B2C
S11317909847A36C9BB1022E00D15DB92046444BFF
S11317A0984738B14FF08052424B1A60BFF34F8FC5
S11317B0BFF36F8F404B9847012005B0F0BD636ABB
S11317C073B104F124003D4B98470028F2D04FF048
S11317D08052384B1A60BFF34F8FBFF36F8FE9E726
S11317E00028E7D04FF08052324B1A60BFF34F8F7E
S11317F0BFF36F8FDEE7304B98470020DDE72046CC
S11318002F4B98472F4B98472F4B9847A26BE36B6E
S11318109A42B8D3022EB6D0019B002BEBD01DB94F
S113182002A82A4B98470125234B9847284B9847F1
S1131830254B984794F844305BB2B3F1FF3F02D193
S1131840002384F8443094F845305BB2B3F1FF3F91
S113185002D1002384F84530174B984701A902A808
S11318601C4B9847C8B920461B4B98470028C6D044
S1131870019904F11000194B98472046104B9847E2
S1131880104B98470028BFD14FF08052094B1A6083
S1131890BFF34F8FBFF36F8FB6E72046084B9847CF
S11318A0084B9847002088E7DD2600005513000008
S11318B0FD13000004ED00E0490F00002D25000099
S11318C0A514000021220000050F000029260000B5
S11318D0712000003D260000091300008D24000043
S11318E048B110B5002181600160C1600B460A4611
S11318F0014CA04710BD7047FD16000010B502460C
S113190000210120034B98470446034B9847204687
S113191010BD00BF99160000E1180000F0B585B0B5
S1131920019260B1044699B10125BDB94FF080031D
S113193083F31188BFF36F8FBFF34F8FFEE74FF030
S1131940800383F31188BFF36F8FBFF34F8FFEE7DC
S1131950036C0BB90125E8E70025E6E70E46454B85
S1131960984710B9019B03B1002545B94FF0800396
S113197083F31188BFF36F8FBFF34F8FFEE7002708
S11319802FE0314620463C4B9847013DA56323692F
S113199063B104F11000394B984738B14FF08052CD
S11319A0374B1A60BFF34F8FBFF36F8F354B984798
S11319B0012005B0F0BD334B98470020F9E702A899
S11319C0314B9847012716E0002384F844301EE089
S11319D0002384F8453020E020462C4B98472C4BBC
S11319E098472C4B9847A56B002DCAD1019B002B1F
S11319F0E1D0002FE3D0234B9847274B9847254B42
S1131A00984794F844305BB2B3F1FF3FDCD094F8CC
S1131A1045305BB2B3F1FF3FDAD01A4B984701A9C6
S1131A2002A81E4B9847C8B920461D4B984700286A
S1131A30D2D0019904F124001A4B98472046134B45
S1131A409847134B98470028CBD14FF080520C4B4A
S1131A501A60BFF34F8FBFF36F8FC2E720460B4B63
S1131A6098470B4B984720460D4B98470028B8D011
S1131A7000209EE7DD260000D51300002D25000080
S1131A8004ED00E0490F000029260000A514000021
S1131A9021220000050F0000712000003D260000F7
S1131AA0311300008D24000070B584B0019158B149
S1131AB00446036C8BB14FF0800383F31188BFF3AA
S1131AC06F8FBFF34F8FFEE74FF0800383F31188CE
S1131AD0BFF36F8FBFF34F8FFEE7564B984760B944
S1131AE0019B63B9012363B94FF0800383F3118829
S1131AF0BFF36F8FBFF34F8FFEE70123F3E700239C
S1131B00F1E700252E4645E0013BA363236813B9A2
S1131B10494B9847A060236963B104F11000474B17
S1131B20984738B14FF08052454B1A60BFF34F8F3E
S1131B30BFF36F8F434B98470125284604B070BD0F
S1131B40404B98470025F8E702A83F4B98470126E9
S1131B502AE0002384F8443032E0002384F845303E
S1131B6034E03A4B9847A068394B98470546354BC3
S1131B7098473BE02046374B9847374B984709E056
S1131B802046344B9847344B98472046334B98476C
S1131B90002840D12D4B9847A36B002BB4D1019B57
S1131BA0002BCDD0002ECFD0264B98472C4B9847F6
S1131BB0264B984794F844305BB2B3F1FF3FC8D04A
S1131BC094F845305BB2B3F1FF3FC6D01D4B984744
S1131BD001A902A8234B98470028D1D120461F4BC6
S1131BE098470028C6D02368002BBAD0019904F185
S1131BF024001D4B98472046164B9847164B984790
S1131C000028C7D14FF080520D4B1A60BFF34F8F9D
S1131C10BFF36F8FBEE7002D8FD00C4B9847204643
S1131C20124B98470146A068114B9847054B9847BB
S1131C30002582E7DD260000492900002D2500004B
S1131C4004ED00E0490F000029260000050F000004
S1131C50FD260000A514000021220000311300001D
S1131C60712000003D2600008D240000F5120000C4
S1131C707D28000070B504460D461646124B984761
S1131C8094F844305BB2B3F1FF3F0DD094F8453083
S1131C905BB2B3F1FF3F0BD00C4B9847A36B5BB126
S1131CA020460B4B984770BD002384F84430EDE781
S1131CB0002384F84530EFE73246294604F1240036
S1131CC0044B9847ECE700BF050F0000490F0000E4
S1131CD0A5140000C9240000064B9B6A012BFBD904
S1131CE04FF08052044B1A60BFF34F8FBFF36F8FD6
S1131CF0F2E700BF143B002004ED00E0094BD3F8E9
S1131D008C301B683BB1074BD3F88C20D268126827
S1131D10C3F8902070474FF0FF32024BC3F8902075
S1131D20704700BF143B00202DE9F04780468A46E7
S1131D3016469946089D099F0A9C9200A521206B8E
S1131D401F4B9847226B06F18043013B02EB830350
S1131D5023F00706BAF1000F0FD0002308E01AF8A9
S1131D600310E21882F834101AF8032012B1013378
S1131D70072BF4D9002384F83B30042D08D94FF005
S1131D80800383F31188BFF36F8FBFF34F8FFEE798
S1131D90E5626564201DDFF830A0D04704F1180027
S1131DA0D0472461C5F10505A56164624A464146F0
S1131DB03046044B9847206007B13C60BDE8F0878B
S1131DC0CF2E0000D90E0000670D00002DE9F0436E
S1131DD087B00F9E109C76B1B4B154250595059D2E
S1131DE0542D1AD04FF0800383F31188BFF36F8F03
S1131DF0BFF34F8FFEE74FF0800383F31188BFF3E7
S1131E006F8FBFF34F8FFEE74FF0800383F311888A
S1131E10BFF36F8FBFF34F8FFEE79846174689468F
S1131E200546059B5422002120460B4B9847266308
S1131E30022384F85130002303930294119B0193ED
S1131E400E9B009343463A4649462846034DA8470D
S1131E50204607B0BDE8F083CF2E0000291D000006
S1131E60F8B5002407E004EB840293000D481844FD
S1131E700D4B98470134042CF5D90C4C04F194070C
S1131E803846094DA84704F1A8063046A84704F18E
S1131E901400A8472046A847C4F88C70C4F8BC6056
S1131EA0F8BD00BF3C3B0020510D0000143B002056
S1131EB070B50446314B9847314BD3F8C0200132FA
S1131EC0C3F8C020D3F8C430002B4DD02C4BD3F82A
S1131ED0C8304BB92A4BD3F8C430DA6AE36A9A4261
S1131EE002D8274BC3F8C440254AD2F8CC3001337A
S1131EF0C2F8CC30E363E36AD2F8D020934202D92B
S1131F001F4AC2F8D0301E4D03EB83039A002A44C3
S1131F10D36AA3609A68E2609968221D4A609A6055
S1131F20E26A05F1280193009E18B00006460144B8
S1131F30616131462944896A013132462A449162F9
S1131F40104B9847D5F8C8306BB1D5F8C430DA6A6D
S1131F50E36A9A4207D24FF080520B4B1A60BFF3E8
S1131F604F8FBFF36F8F70BD054BC3F8C440D3F8D8
S1131F70C030012BB8D1054B9847B5E7050F0000D9
S1131F80143B0020490F000004ED00E0611E000036
S1131F902DE9F04104468846254BD3F8D450D3F8B4
S1131FA08C60D3F8BC70D3F8C4000430214B98473C
S1131FB0B4F1FF3F15D02C441D4BD3F8C4305C6002
S1131FC0A5422BD81A4DD5F8C410043130461A4B0B
S1131FD09847D5F890309C4201D2C5F89040BDE8AE
S1131FE0F081B8F1000FE6D0114B5A68D3F8C41051
S1131FF08A60D3F8C4109068C8609068D3F8C4109D
S113200004314160D3F8C41004319160D3F8C42082
S113201053611A6801321A60BDE8F081044BD3F8A9
S1132020C41004313846044B9847BDE8F08100BF22
S1132030143B0020A10D00006D0D000030B587B0E9
S113204006AC002544F8045D03940C9C02940B9C9C
S113205001940A9C0094044CA04708B1034B984790
S1132060059807B030BD00BFCD1D0000B11E0000B3
S1132070034AD2F8D8300133C2F8D830704700BFD1
S1132080143B0020014BD3F8D4007047143B0020CC
S1132090014BD3F8C0007047143B0020F8B55E4BE9
S11320A0D3F8D830002B40F0AD805B4BD3F8D4404C
S11320B00134C3F8D440E4B9D3F88C301B6843B17D
S11320C04FF0800383F31188BFF36F8FBFF34F8FFB
S11320D0FEE7514BD3F88C20D3F8BC10C3F88C1016
S11320E0C3F8BC20D3F8E0200132C3F8E0204B4B06
S11320F09847494BD3F890309C4271D20020464A0D
S1132100D2F8C430DB6A03EB830399000A44936A70
S1132110012B00D90120404BD3F8DC30002B79D1BE
S1132120F8BD01203C4BD3F88C301B68002B59D0F0
S1132130394BD3F88C30DB68DB685A68944257D348
S11321405A699968DD688D60D9689D684D605168E9
S11321501E1DB14250D0002159611168013911602E
S11321609A6A7AB1D9691D6A8D60196ADD694D6010
S1132170556803F118018D4241D00021996211681C
S113218001391160DA6A2449D1F8D0108A4202D99F
S11321902149C1F8D020204902EB820295000D4468
S11321A0EA6A9A609568DD6095686E609660DD6A9B
S11321B001F12806AA0002EB050E4FEA8E07BE467F
S11321C03E445E6176460E44B66A013675460D4459
S11321D0AE62DA6AD1F8C430DB6A9A42A1D8A1E7C8
S11321E000209FE74FF0FF320B4BC3F8902086E7A7
S11321F0094BC3F8902082E7D9685160ABE7196AAC
S11322005160BAE7044AD2F8E4300133C2F8E4304A
S11322100020F8BD0120F8BD143B0020FD1C000087
S113222070B5574B9847574BD3F8D83043B94FF054
S1132230800383F31188BFF36F8FBFF34F8FFEE7E3
S1132240504BD3F8D820013AC3F8D820D3F8D8306B
S1132250002B40F091804B4BD3F8C030002B58D06A
S11322600023484A5269002A5ED0464B1B6ADB6849
S11322709A6AD969186A8860196AD8694860506886
S113228003F11801884249D000219962116801398B
S113229011605A699968D8688860D96898684860F4
S11322A051681C1DA1423CD00021596111680139BB
S11322B01160DA6A3349D1F8D0108A4202D931491F
S11322C0C1F8D0202F4902EB820290000844C26A70
S11322D09A609068D860906844609460D86A01F10C
S11322E0280482001618B5002E462C445C6134463E
S11322F00C44A46A0134304608448462D86AD1F894
S1132300C420D26A9042ACD901211E4AC2F8DC1022
S1132310A7E700241C4B9847204670BD196A5160FA
S1132320B2E7D9685160BFE70BB1184B9847154B1A
S1132330D3F8E44094B9134BD3F8DC30F3B1114B28
S1132340D3F8C4304FF08052114B1A60BFF34F8F53
S1132350BFF36F8F0124DDE7013C08D00D4B984794
S11323600028F9D00122074BC3F8DC20F4E700224F
S1132370044BC3F8E420DEE70024CBE70024C9E7DC
S1132380050F0000143B0020490F0000FD1C000055
S113239004ED00E09D20000010B550B9002038B9CC
S11323A04FF080520F4B1A60BFF34F8FBFF36F8F04
S11323B010BD04460C4B98470C4BD3F8D830012B76
S11323C008D04FF0800383F31188BFF36F8FBFF3FE
S11323D04F8FFEE700212046054B9847054B984751
S11323E0DDE700BF04ED00E071200000143B002095
S11323F0911F000021220000234BD3F8D8307BB971
S1132400214B0022C3F8DC20D3F8D03003EB830245
S113241091001D4A0A44926A82B933B1013BF5E73F
S11324200122194BC3F8DC2070474FF0800383F37B
S11324301188BFF36F8FBFF34F8FFEE710B4124ABA
S11324409900CC18A0001044C46A6468C46228329D
S11324501944880001460830024494420FD00A4AC5
S113246003EB830081001144C96AC968C2F8C4102F
S1132470C2F8D030D2F8C4305DF8044B7047024A39
S11324800A44516BD162EAE7143B002040B94FF093
S1132490800383F31188BFF36F8FBFF34F8FFEE781
S11324A010B50C46054BD3F8C4101831044B9847AB
S11324B001212046034B984710BD00BF143B002068
S11324C06D0D0000911F000010B370B50E46044658
S11324D04068144BD3F8C410C861D3F8C41085689D
S11324E00D628168D3F8C45018354D60D3F8C450D8
S11324F018358560D3F8C4309C62236801332360A7
S11325000AB14FF0FF3611463046074B984770BD6D
S11325104FF0800383F31188BFF36F8FBFF34F8FA6
S1132520FEE700BF143B0020911F0000C368DB6876
S1132530002B57D070B49A6AD969186A8860196AEE
S1132540D8694860516803F11800814253D00021D2
S11325509962116801391160324AD2F8D820002AF0
S11325604FD15A699968D8688860D9689868486072
S113257051681C1DA14241D00021596111680139E3
S11325801160DA6A2749D1F8D0108A4202D9254964
S1132590C1F8D020234902EB820290000844C26AA9
S11325A09A609068D860906844609460D86A01F139
S11325B0280482001618B5002E462C445C6134466B
S11325C00C44A46A013431448C62DA6A154BD3F8A2
S11325D0C430DB6A9A4223D90120124BC3F8DC00D1
S11325E070BC70474FF0800383F31188BFF36F8F83
S11325F0BFF34F8FFEE7196A5160A8E7D9685160AD
S1132600BAE7084A9169D9618C681C628C68606079
S1132610886002F114019962516901315161D4E772
S11326200020DDE7143B0020034BD3F8E0200260D8
S1132630D3F8D43043607047143B0020F8B5D8B1C8
S1132640054611B30C461D4B98471D4BD3F8D400D7
S11326506968421A2368B3F1FF3F2DD02F68184EE2
S1132660D6F8E060B74201D0884217D29A421CD310
S113267000232360012414E04FF0800383F31188C6
S1132680BFF36F8FBFF34F8FFEE74FF0800383F3E9
S11326901188BFF36F8FBFF34F8FFEE700232360D2
S11326A00124084B98472046F8BD9B1A236028460E
S11326B0054B98470024F4E70024F2E7050F0000D7
S11326C0143B0020490F0000292600000122024B80
S11326D0C3F8DC20704700BF143B0020064BD3F83E
S11326E0C8302BB1044BD3F8D8301BB90220704743
S11326F00120704700207047143B0020002858D068
S113270070B50446C26A2C49D1F8C410C96A8A4219
S113271044D28169002906DB2749D1F8C410C96A6B
S1132720C1F105018161606902EB82029100234AD3
S11327300A44904206D0204AD2F8C420D26AE26207
S1132740012070BD251D28461D4B98471A4AD2F812
S1132750C430DB6AE362D2F8D020934202D9164A2D
S1132760C2F8D030144A03EB830399001144CB6AB6
S1132770A3609968E16099684D609D60E16A02F127
S113278028008B005E18B500284460612846104478
S1132790806A01302A449062012070BD426C064B6D
S11327A0D3F8C430DB6A9A4201D2012070BD002004
S11327B070BD0020704700BF143B00203C3B00204C
S11327C0A10D000000284FD070B50446294BD3F862
S11327D0C430984208D04FF0800383F31188BFF3CC
S11327E06F8FBFF34F8FFEE7836C43B94FF08003C5
S11327F083F31188BFF36F8FBFF34F8FFEE7013B65
S11328008364C16A426C914230D0002B30D1051DE3
S11328102846194B9847636CE362C3F10502A26131
S1132820144AD2F8D020934202D9124AC2F8D030C6
S1132830104A03EB830399001144CB6AA36099689F
S1132840E16099684D609D60E16A02F128008B00A7
S11328505E18B5002844606128461044806A01303F
S11328602A449062012070BD00207047002070BD92
S1132870002070BD143B0020A10D000000285BD097
S113288070B50446806C40B94FF0800383F311881F
S1132890BFF36F8FBFF34F8FFEE7626C8A4200D2A3
S11328A00A46E16A8A4201D0012800D070BD23485B
S11328B0D0F8C400844208D14FF0800383F3118818
S11328C0BFF36F8FBFF34F8FFEE7E262A06900286A
S11328D002DBC2F10502A261636901EB8101880098
S11328E0174A02449342E1D1251D2846154B9847C7
S11328F0E36A124AD2F8D020934202D90F4AC2F8AE
S1132900D0300E4A03EB830399001144CB6AA360D1
S11329109968E16099684D609D60E16A02F1280060
S11329208B005E18B5002844606128461044806A14
S113293001302A449062B9E7704700BF143B00207D
S11329403C3B0020A10D0000034BD3F8C40010B1A0
S1132950836C013383647047143B002010B4064B2E
S113296003F1E804046003F59E730B604FF4806385
S113297013605DF8044B7047143B002030B58BB0F6
S11329800023072B08DC154AD25C0AA9194401F874
S1132990082C0AB10133F4E700250120002D01DDE4
S11329A00BB030BD00240594069407AA06A905A817
S11329B00B4B9847059B0293069B01930094234677
S11329C0079A08A90748084CA04720B1012000280D
S11329D0E6D00135E2E70020F9E700BFC44100007A
S11329E05D290000D91C00003D20000008B5174BEC
S11329F09847012807D0012808D0B0F1FF3F1BD029
S1132A00134B1B6808BD134B9847F4E74FF0800342
S1132A1083F31188BFF36F8FBFF34F8F0E4B4FF0CB
S1132A20FF32C3F890200122C3F8C8200022C3F863
S1132A30D4200A4B9847E3E74FF0800383F31188CF
S1132A40BFF36F8FBFF34F8FFEE700BF7D290000F8
S1132A5008000020D12D0000143B0020C90F000005
S1132A6010B4054B03F14404046098330B60402315
S1132A7013605DF8044B70470C4C0020064B1A6839
S1132A8013682BB90123036023B9D368186870470E
S1132A900023F8E700207047A44D002008B54160EA
S1132AA0006191420CD8D21A83699A4201D3012061
S1132AB008BD011D094B5868094B9847002008BD03
S1132AC09A4201D2994206D2011D044B1868044B64
S1132AD09847002008BD012008BD00BFA44D002078
S1132AE06D0D0000F8B504460D46174604E0A369D1
S1132AF01D44236A20469847A1692B463A46294437
S1132B002046024EB0470028F1D1F8BD9D2A0000AE
S1132B1070B505460E460D4B1B68DB68DC68201D4E
S1132B200B4B984794F8283013F0040F07D123F087
S1132B30010384F82830236A2046984770BD324642
S1132B4029462046034B9847F5E700BFA44D0020D3
S1132B50A10D0000E52A000008B505E0DB684FF090
S1132B60FF311868054B9847054B1B681A68002A03
S1132B70F4D1034A51681160536008BD112B000061
S1132B80A44D002038B50546084B98470446084B29
S1132B909B68984205D300232B60054B9C6020461C
S1132BA038BD044B984701232B60F6E785200000CD
S1132BB0A44D0020592B000070B582B006460C4687
S1132BC0174B984701A8174B9847019B2BBB054609
S1132BD00CB9B04218D224B1134B5B681B68D3B94B
S1132BE001242246711B104BD868104B9847104B98
S1132BF0984738B94FF080520E4B1A60BFF34F8F8D
S1132C00BFF36F8F02B070BD094B98472946304619
S1132C10094B9847F6E70024E3E7054B9847F1E7AB
S1132C2071200000852B0000A44D0020751C0000BD
S1132C302122000004ED00E0112B000070B584B0E7
S1132C400023019302930393002201A9394BD8680E
S1132C50394B984700286AD0019B002BF4DB039C76
S1132C60636913B1201D354B98476846344B984728
S1132C700546019B013B082BE6D8DFE803F0050578
S1132C802A314A05052A310094F8283043F001031B
S1132C9084F828300299A0690B462A46014420464C
S1132CA0284EB0470028CFD094F8283013F0040FF2
S1132CB007D123F0010384F82830236A204698477B
S1132CC0C2E7A3692A460299194420461E4B984735
S1132CD0F3E794F8283023F0010384F82830B3E7AD
S1132CE094F8283043F0010384F828300299A16154
S1132CF031B10346024601442046124CA047A3E7E3
S1132D004FF0800383F31188BFF36F8FBFF34F8FAE
S1132D10FEE794F8283013F0020F04D023F00103E7
S1132D2084F8283090E72046084B98478CE704B095
S1132D3070BD00BFA44D00201D190000A10D0000AE
S1132D40852B00009D2A0000E52A00006D1200007A
S1132D5000B583B001A8044B98470199034B9847E9
S1132D60034B9847F6E700BF7D2A0000B92B00000B
S1132D703D2C0000F0B583B0104B9847104BDB6836
S1132D801BB1104B984703B0F0BD0D4C04F1100675
S1132D9030460D4FB84704F124052846B84726604D
S1132DA065600023009304F1380304F18C020C21C4
S1132DB00220064DA847E060E3E700BF050F0000CE
S1132DC0A44D0020490F0000510D000029160000F9
S1132DD010B588B0154B9847154BDB6813B3002426
S1132DE00594069407AA06A905A8124B9847059BC3
S1132DF00293069B0193022300932346079A0E49EC
S1132E000E480F4CA0470A4BC3F8A40000B10120A0
S1132E1050B94FF0800383F31188BFF36F8FBFF372
S1132E204F8FFEE70020F3E708B010BD752D0000BA
S1132E30A44D0020612A0000CC410000512D000067
S1132E403D20000008B56420064B9847064D01213B
S1132E502846064CA04703212846A04707212846B8
S1132E60A047F0E799230000D44100006D0300005F
S1132E7070B50D4E0D4CA41BA4100025A54209D11C
S1132E800B4E0C4C01F0FAF9A41BA4100025A5422A
S1132E9005D170BD56F8253098470135EEE756F850
S1132EA0253098470135F2E7884200008842000047
S1132EB0884200008C42000010B5431E0A4491422F
S1132EC000D110BD11F8014B03F8014FF7E702449C
S1132ED00346934200D1704703F8011BF9E7000051
S1132EE070B50E46054618B183690BB900F0EEFAC9
S1132EF0AB69AC6813B9284600F0E8FA234B9C424E
S1132F0017D16C68A3891B071DD52369DBB1013E6A
S1132F10A36816F8011F013BA360E9B9002B2EDA60
S1132F2022460A21284600F01FF9013011D00A2058
S1132F3070BD174B9C4201D1AC68E3E7154B9C4232
S1132F4008BFEC68DEE72146284600F05FF9002858
S1132F50DDD04FF0FF3070BD002B04DAA26993423C
S1132F6006DB0A2904D023685A1C22601970CFE7B3
S1132F702246284600F0F8F80130C9D1E9E7236871
S1132F800A205A1C2260187070BD00BF084200005D
S1132F9028420000E8410000024B01461868FFF790
S1132FA09FBF00BF0C00002000294FF480630CBFBA
S1132FB00222002200F000B82DE9F7431D46514BD0
S1132FC01E6804460F46904626B1B36913B93046CD
S1132FD000F07CFA4C4B9C4252D17468B8F1020F59
S1132FE006D0B8F1010F00F28980002DC0F286806E
S1132FF02146304600F000FA616B41B104F144030C
S1133000994202D0304600F057FB0023636300234B
S1133010A3616360A3891B0603D52169304600F0D0
S11330204BFBA38923F44A6323F00303B8F1020F93
S1133030A3815DD001AB6A462146304600F0D0FA48
S1133040A3891843A0812DBB009D284600F02CFBCA
S1133050074600284ED1DDF80090A9453CD14FF039
S1133060FF30A38943F00203A3810023A36004F18A
S11330704703236023610123636103B0BDE8F08348
S1133080224B9C4201D1B468A8E7214B9C4208BF63
S1133090F468A3E7002FD8D0B36913B9304600F021
S11330A015FAB8F1010F08BFA389276004BF43F0E4
S11330B00103A381A389276113F0080065611BD074
S11330C013F0010018BF6D424FF000031DBFA36051
S11330D0A5611846A560D0E7484600F0E5FA074622
S11330E00028BCD0A38943F08003A3814D46D3E7D5
S11330F00020B6E7A946F5E7A060BEE74FF0FF3031
S1133100BBE700BF0C00002008420000284200007A
S1133110E8410000034613F8012B002AFBD1181ADA
S11331200138704710B59AB04FF4027400910491BD
S11331306FF00041029105914FF6FF71ADF80E104A
S11331406946ADF80C4000F0BFFB009B00221A70EA
S11331501AB010BD13460A46014602480068FFF73C
S1133160E1BF00BF0C000020F8B50E46144605462A
S113317018B183690BB900F0A9F9214B9C422AD1FB
S11331806C68A369A360A3891A072ED5236963B366
S113319023692068C01A6369F6B29842374604DB93
S11331A02146284600F028F928BBA368013BA36008
S11331B023685A1C22601E7063690130984204D04F
S11331C0A389DB0719D50A2E17D12146284600F01A
S11331D013F990B10FE00B4B9C4201D1AC68D0E7DE
S11331E0094B9C4208BFEC68CBE72146284600F017
S11331F00DF80028CCD04FF0FF373846F8BD00BF9B
S11332000842000028420000E8410000324B70B53B
S11332101D6806460C4625B1AB6913B9284600F073
S113322055F92E4B9C420FD16C68B4F90C309AB20C
S113323015072CD4D00611D40922326043F0400380
S1133240A3814FF0FF3070BD254B9C4201D1AC6887
S1133250EBE7244B9C4208BFEC68E6E7510712D524
S1133260616B41B104F14403994202D0304600F04D
S113327023FA00236363A38923F02403A381002397
S1133280636023692360A38943F00803A38123694E
S11332904BB9A38903F42073B3F5007F03D021460F
S11332A0304600F0C1F9A28912F001030CD00023CA
S11332B0A36063695B42A361236953B9B4F90C3019
S11332C013F08000BAD170BD920758BF6369A36040
S11332D0F2E70020F7E700BF0C00002008420000DE
S11332E028420000E84100008A892DE9F0410546A2
S11332F010070C465AD44B68002B05DC0B6C002BD2
S113330002DC0020BDE8F081E66A002EF9D000233B
S113331012F480522F682B6033D0606DA3895A0752
S113332005D56368C01A636B0BB1236CC01A002304
S11333300246E66A216A2846B047431CA38906D19F
S113334029681D294BD82B4ACA40D60747D50022E5
S11333506260D9042269226004D5421C01D12B6821
S113336003B96065616B2F600029CAD004F144037E
S1133370994202D0284600F09FF900206063BDE81E
S1133380F081216A01232846B047411CC6D12B682D
S1133390002BC3D01D2B01D0162B01D12F60B0E719
S11333A0A38943F04003A381BDE8F0810F69002F96
S11333B0A7D093070E6808BF4B690F6018BF00239E
S11333C0A6EB07088B60B8F1000F9ADD43463A4636
S11333D0216AA66A2846B047002807DCA38943F07F
S11333E04003A3814FF0FF30BDE8F0810744A8EB10
S11333F00008E8E70100402038B50B6905460C4693
S1133400DBB118B183690BB900F060F80C4B9C4236
S113341009D16C68B4F90C307BB121462846BDE86B
S11334203840FFF761BF074B9C4201D1AC68F1E71C
S1133430054B9C4208BFEC68ECE7002038BD00BF98
S11334400842000028420000E8410000014900F061
S1133450A9B800BFF9330000002310B50446036087
S11334604360836081814366C281036143618361F8
S1133470194608225C30FFF72AFD054B6362054BB1
S1133480A362054BE362054B2462236310BD00BFB6
S1133490FD3D00001F3E0000573E00007B3E000043
S11334A070B54A1E682555430E4605F1740100F0B7
S11334B051F9044640B1002180E842000C30A0607C
S11334C005F16802FFF703FD204670BD836910B55E
S11334D0044633BB8364C3640365124B124A1B68FE
S11334E08262984204BF0123836100F01FF8606088
S11334F0204600F01BF8A060204600F017F80022D8
S1133500E06004216068FFF7A7FF01220921A06899
S1133510FFF7A2FF02221221E068FFF79DFF0123BB
S1133520A36110BDE44100004D340000F8B51C4B0C
S11335301E68B369074613B93046FFF7C7FF48361C
S1133540B4687368013B03D5336833B13668F7E771
S1133550B4F90C506DB16834F4E704213846FFF730
S11335609FFF30600028F1D10C233B6004462046C5
S1133570F8BD4FF6FF73E3810123A38165662560DF
S1133580A560656025616561A5610822294604F18D
S11335905C00FFF79CFC6563A563A564E564E6E74E
S11335A0E44100002DE9F8438046894600F14804CF
S11335B0002614B93046BDE8F883A5686768013F62
S11335C001D52468F5E7AB89012B07D9B5F90E308D
S11335D0013303D029464046C84706436835EEE721
S11335E070B50E46B1F90E10002990B014461D4670
S11335F007DA00232B60B3891A0610D44FF48063D2
S11336000EE001AA00F060FC0028F2DB029A02F44A
S11336107042A2F500535A425A412A60EEE7402311
S11336200020236010B070BD8B8973B59D070646DA
S11336300C4607D504F1470323602361012363612A
S113364002B070BD01AB6A46FFF7CAFF0099054698
S1133650304600F07FF848B9B4F90C309A05EFD43D
S113366023F0030343F00203A381E3E70D4BB362AA
S1133670A389206043F08003A381009B6361019BC5
S113368020615BB1B4F90E10304600F02FFC28B174
S1133690A38923F0030343F00103A381A3891D43FA
S11336A0A581CDE74D340000024B0146186800F0B7
S11336B051B800BF0C00002038B50546002945D09C
S11336C051F8043C0C1F002BB8BFE41800F09AFC1E
S11336D01F4A1368104633B9636014602846BDE876
S11336E0384000F090BCA3420CD921686218934280
S11336F004BF1A685B68636004BF521822600460E8
S1133700ECE713465A680AB1A242FAD91968581864
S1133710A0420BD120680144581882421960DDD1BF
S1133720106852685A6001441960D7E702D90C2323
S11337302B60D3E7206821188A4204BF11685268BD
S1133740626004BF091821605C60C7E738BD00BF30
S11337504C4E002070B5CD1C25F0030508350C2D0A
S113376038BF0C25002D064601DBA94203D90C23E2
S11337703360002070BD00F045FC234A14682146E4
S113378091B9224C23681BB9304600F027FB206016
S11337902946304600F022FB431C26D10C2333601B
S11337A0304600F030FCE4E70B685B1B1AD40B2BAB
S11337B00FD90B60CD50CC18304600F024FC04F136
S11337C00B00231D20F00700C31A1BD05A42E250FD
S11337D070BD8C420DBF63684B686360136018BF93
S11337E00C46E9E70C464968CAE7C41C24F0030404
S11337F0A04205D0211A304600F0F0FA0130CDD0B5
S11338002560D9E770BD00BF4C4E0020504E00200B
S11338102DE9F0478E689E4282460C4691469846B2
S113382035D88A8912F4906F31D0256809696F1AE6
S11338306569022305EB450595FBF3F508F10103E2
S11338403B449D4238BF1D46530531D52946FFF7F9
S113385081FF064650B90C23CAF80030A38943F00F
S11338604003A3814FF0FF30BDE8F0873A46216959
S1133870FFF722FBA38923F4906343F08003A38121
S1133880266165613E44ED1B2660A56046464645BB
S113389028BF464632464946206800F099FBA36893
S11338A09B1BA36023681E4426600020BDE8F087AC
S11338B02A4600F0A9FB06460028E1D121695046BA
S11338C0FFF7FAFEC7E700002DE9F04F9DB08046F0
S11338D003938B891C060D4616460FD50B696BB9ED
S11338E04021FFF737FF2860286128B90C23C8F866
S11338F000304FF0FF30C5E040236B610023099393
S113390020238DF8293030238DF82A304FF0010B15
S113391037463C4614F8013B002B3CD1B7EB060A72
S11339200BD05346324629464046FFF771FF01301B
S113393000F0A380099B534409933B78002B00F0CB
S11339409C8000234FF0FF32049307930592069363
S11339508DF853301A9305222178504800F0E8FA84
S1133960671C049BD8B9D90644BF20228DF8532084
S11339701A0744BF2B228DF8532022782A2A16D006
S1133980079A00210A20274601343B78303B092B53
S113399051D9C9B111E0252BC0D02746B9E73F4A18
S11339A0801A0BFA00F0184304903C46D3E7039ABC
S11339B0111D12680391002A01DB079204E05242B0
S11339C043F00203079204933B782E2B0ED17B78AD
S11339D02A2B07F1010132D1039B1A1D1B680392A4
S11339E0002BB8BF4FF0FF33023705932C4C3978C6
S11339F00322204600F09CFA38B14023001B03FA4E
S1133A0000F0049B034304930137397825488DF86B
S1133A10281006227E1C00F08BFA002835D0224B99
S1133A20FBB9039B073323F0070308330393099B74
S1133A304B4409936CE700FB02320121A3E7002306
S1133A40059318460A240F4601313A78303A092A78
S1133A5003D9002BCAD00590C8E704FB002001233A
S1133A60F1E703AB00932A46104B04A94046AFF399
S1133A700080B0F1FF3F8146D9D1AB895B063FF5A9
S1133A8038AF09981DB0BDE8F08F03AB00932A4608
S1133A90064B04A9404600F081F8EAE748420000DA
S1133AA04E420000524200000000000011380000A5
S1133AB02DE9F04791461F468A680B69DDF820809E
S1133AC09342B8BF1346C9F8003091F84320064624
S1133AD00C4612B10133C9F800302368990642BF7D
S1133AE0D9F800300233C9F80030256815F006050E
S1133AF007D104F1190AE368D9F800209B1A9D4202
S1133B0029DB94F843302268003318BF012392065E
S1133B102ED404F1430239463046C047013021D047
S1133B202368E568D9F8002003F00603042B08BFD6
S1133B30AD1AA36822690CBF25EAE57500259342F6
S1133B40C4BF9B1AED184FF000091A344D451BD120
S1133B500020BDE8F0870123524639463046C0476D
S1133B60013003D14FF0FF30BDE8F0870135C2E7E3
S1133B70E1185A1C302081F84300224494F845107F
S1133B8082F843100233C4E7012322463946304603
S1133B90C0470130E6D009F10109D7E72DE9F04328
S1133BA017460A7E85B06E2A984606460C460C9B3C
S1133BB001F1430E00F0BC801AD8632A2ED00AD833
S1133BC0002A00F0C880582A00F08A8004F14205D7
S1133BD084F842202AE0642A01D0692AF6D12168B7
S1133BE01A6811F0800F23D0111D1960136827E0A3
S1133BF0732A00F0B48008D86F2A2AD0702AE5D13D
S1133C000A6842F020020A6003E0752A21D0782A6B
S1133C10DCD1782284F845206E4964E01A6801F109
S1133C204205111D1960136884F842300123A3E092
S1133C3011F0400F02F104011960D7D0B2F900303D
S1133C40002B03DA2D225B4284F8432062490A22C6
S1133C5017E02068196810F0800F03D0081D186061
S1133C600B6806E010F0400F01F104001860F7D073
S1133C700B8859496F2A14BF0A220822002084F8AD
S1133C8043006568A560002DC0F29C80206820F088
S1133C9004002060002B3FD1002D40F09580754634
S1133CA0082A0BD12368DA0708D5236962689A4287
S1133CB0DEBF302305F8013C05F1FF35AEEB05030B
S1133CC02361CDF800803B4603AA21463046FFF726
S1133CD0EFFE013055D14FF0FF3005B0BDE8F08361
S1133CE081F845203C492268186812F0800F00F1E1
S1133CF004051D6001D0036802E05506FBD5038866
S1133D00D00744BF42F0200222601BB9226822F08F
S1133D10200222601022B1E77546B3FBF2F002FBE9
S1133D201033CB5C05F8013D03460028F5D1B7E715
S1133D3008681A68496910F0800F04D0101D1860D3
S1133D401368196007E010F0400F02F104001860D6
S1133D501368F6D01980002323617546B1E71A6809
S1133D60111D1960156862680021284600F0E0F80A
S1133D7008B1401B606063682361002384F843300A
S1133D809FE723692A4639463046C0470130A2D00E
S1133D9023689B0707D5002504F11909E368039AF2
S1133DA09B1A9D4205DBE068039B9842B8BF184606
S1133DB093E701234A4639463046C04701308AD04A
S1133DC00135EBE7002BA7D10B7884F8423004F1DE
S1133DD0420565E76A4200005942000038B5064CC6
S1133DE00023054608462360FCF77AFC431C02D1F5
S1133DF0236803B12B6038BD3063002010B50C4636
S1133E00B1F90E1000F026F90028ABBF636DA38949
S1133E101B1823F48053ACBF6365A38110BD2DE947
S1133E20F0411F468B89DB0505460C46164605D531
S1133E3002230022B1F90E1000F068F8A389B4F946
S1133E400E1023F48053A38132463B462846BDE836
S1133E50F04100F017B810B50C46B1F90E1000F09F
S1133E6055F8431CA38915BF606523F4805343F4BC
S1133E708053A38118BFA38110BDB1F90E1000F0C7
S1133E8013B8000038B5074C054608461146002211
S1133E9022601A46FCF70EFF431C02D1236803B1CB
S1133EA02B6038BD3063002038B5064C002305462E
S1133EB008462360FCF726FC431C02D1236803B1A7
S1133EC02B6038BD3063002038B5074C002305460D
S1133ED0084611462360FCF718FC431C02D12368F2
S1133EE003B12B6038BD00BF3063002038B5064CE9
S1133EF00023054608462360FCF70CFC431C02D152
S1133F00236803B12B6038BD3063002038B5074CFB
S1133F10054608461146002222601A46FCF7FCFBBF
S1133F20431C02D1236803B12B6038BD30630020E9
S1133F3001F0FF01102A2BDB10F0070F08D010F856
S1133F40013B013A8B422DD010F0070F42B3F6D15A
S1133F50F0B441EA012141EA014122F007047FF073
S1133F6000070023F0E80256083C85EA010586EACA
S1133F70010685FA47F5A3FA87F586FA47F6A5FA06
S1133F8087F68EB9EED1F0BC01F0FF0102F0070212
S1133F9032B110F8013B013A83EA010313B1F8D1BD
S1133FA00020704701387047002D06BF354603389E
S1133FB0073815F0010F07D1013015F4807F02BFD7
S1133FC0013015F4C03F0130F0BC0138704700BF28
S1133FD0884210B501EB020303D8421E99420CD16A
S1133FE010BD9842F9D28118D21AD34200D110BD23
S1133FF013F8014D01F8014DF7E711F8014B02F8F0
S1134000014FEBE770477047F8B5074614460E4674
S113401021B91146BDE8F840FFF79CBB22B9FFF770
S11340204BFB25462846F8BD00F026F884420FD9FC
S113403021463846FFF78EFB05460028F2D031466C
S11340402246FEF739FF31463846FFF735FBE9E7EC
S11340503546E7E738B5074C0546084611460022C1
S113406022601A46FCF714FE431C02D1236803B1F4
S11340702B6038BD3063002051F8040C0028A0F1F7
S11340800400BCBF0B58C018704700004D6973731F
S1134090696E6720436F756E74204F766572200DCC
S11340A00A0000002E2E2F68616C2F7372632F6834
S11340B0616C5F696F2E63002E2E2F68616C2F7305
S11340C072632F68616C5F75736172745F73796E6C
S11340D0632E6300003000400034004000200141A2
S11340E00040014100000043000400430008004375
S11340F0000C004302000000040010400000030014
S113410002007000ADD800000000000000000000B4
S1134110000000000000000000000000000000009B
S1134120000000000000000000000000000000008B
S1134130000000000000000000000000000000007B
S113414000000000000000002E2E2F68706C2F73FA
S11341506572636F6D2F68706C5F736572636F6DEA
S11341602E630000506C6174666F726D20696E6915
S11341707420646F6E650D00646961675F746173B8
S11341806B0000007573625F7461736B0000000064
S11341906E6574776F726B5F7461736B00000000FF
S11341A06E6574776F726B5F7461736B2025642026
S11341B00D0A00000925630925750925750925756A
S11341C00D0A000049444C4500000000546D722063
S11341D0537663007573625F7461736B202564208A
S11341E00D0A000010000020000000000000000084
S11341F000000000000000000000000000000000BB
S113420000000000000000000000000000000000AA
S1134210000000000000000000000000000000009A
S1134220000000000000000000000000000000008A
S1134230000000000000000000000000000000007A
S11342400000000000000000232D302B2000686CCB
S11342504C006566674546470030313233343536A5
S113426037383941424344454600303132333435DE
S1134270363738396162636465660000F8B500BF9B
S1134280F8BC08BC9E46704789020000F8B500BF20
S10F4290F8BC08BC9E46704765020000A4
S113429CAAAAAAAA580900000400000010000020D1
S11342AC000000000842000028420000E841000021
S11342BC00000000000000000000000000000000EE
S11342CC00000000000000000000000000000000DE
S11342DC00000000000000000000000000000000CE
S11342EC00000000000000000000000000000000BE
S11342FC00000000000000000000000000000000AE
S9030000FC
